{
  "address": "0x9BaCA1f3304Ff606703c3e0d7433741D92a015E4",
  "abi": [
    {
      "inputs": [
        {
          "internalType": "string",
          "name": "_version",
          "type": "string"
        },
        {
          "internalType": "address",
          "name": "_marginAsset",
          "type": "address"
        },
        {
          "internalType": "address",
          "name": "_addressResolver",
          "type": "address"
        },
        {
          "internalType": "address",
          "name": "_marginBaseSettings",
          "type": "address"
        },
        {
          "internalType": "address payable",
          "name": "_ops",
          "type": "address"
        }
      ],
      "stateMutability": "nonpayable",
      "type": "constructor"
    },
    {
      "anonymous": false,
      "inputs": [
        {
          "indexed": true,
          "internalType": "address",
          "name": "owner",
          "type": "address"
        },
        {
          "indexed": false,
          "internalType": "address",
          "name": "account",
          "type": "address"
        }
      ],
      "name": "NewAccount",
      "type": "event"
    },
    {
      "inputs": [],
      "name": "addressResolver",
      "outputs": [
        {
          "internalType": "address",
          "name": "",
          "type": "address"
        }
      ],
      "stateMutability": "view",
      "type": "function"
    },
    {
      "inputs": [],
      "name": "implementation",
      "outputs": [
        {
          "internalType": "contract MarginBase",
          "name": "",
          "type": "address"
        }
      ],
      "stateMutability": "view",
      "type": "function"
    },
    {
      "inputs": [],
      "name": "marginAsset",
      "outputs": [
        {
          "internalType": "contract IERC20",
          "name": "",
          "type": "address"
        }
      ],
      "stateMutability": "view",
      "type": "function"
    },
    {
      "inputs": [],
      "name": "marginBaseSettings",
      "outputs": [
        {
          "internalType": "address",
          "name": "",
          "type": "address"
        }
      ],
      "stateMutability": "view",
      "type": "function"
    },
    {
      "inputs": [],
      "name": "newAccount",
      "outputs": [
        {
          "internalType": "address",
          "name": "",
          "type": "address"
        }
      ],
      "stateMutability": "nonpayable",
      "type": "function"
    },
    {
      "inputs": [],
      "name": "ops",
      "outputs": [
        {
          "internalType": "address payable",
          "name": "",
          "type": "address"
        }
      ],
      "stateMutability": "view",
      "type": "function"
    },
    {
      "inputs": [],
      "name": "version",
      "outputs": [
        {
          "internalType": "string",
          "name": "",
          "type": "string"
        }
      ],
      "stateMutability": "view",
      "type": "function"
    }
  ],
  "transactionHash": "0xb5a456acaf0b5c959a92c9ce767585be7dbdb34adb6f5f3b90a2b652346fa525",
  "args": [
    "1.0.0",
    "0xeBaEAAD9236615542844adC5c149F86C36aD1136",
    "0x9Fc84992dF5496797784374B810E04238728743d",
    "0x0b95CD442447848583Ac8a377aee41fa8ecd68D4",
    "0x255F82563b5973264e89526345EcEa766DB3baB2"
  ],
  "numDeployments": 1,
  "solcInputHash": "aa5a2a960386d7a881b79dbfa78b9ae9",
  "bytecode": "0x6101006040523480156200001257600080fd5b5060405162006b2738038062006b2783398181016040528101906200003891906200049d565b84600090805190602001906200005092919062000198565b506040516200005f9062000229565b604051809103906000f0801580156200007c573d6000803e3d6000fd5b5073ffffffffffffffffffffffffffffffffffffffff1660808173ffffffffffffffffffffffffffffffffffffffff16815250508373ffffffffffffffffffffffffffffffffffffffff1660a08173ffffffffffffffffffffffffffffffffffffffff16815250508273ffffffffffffffffffffffffffffffffffffffff1660c08173ffffffffffffffffffffffffffffffffffffffff168152505081600160006101000a81548173ffffffffffffffffffffffffffffffffffffffff021916908373ffffffffffffffffffffffffffffffffffffffff1602179055508073ffffffffffffffffffffffffffffffffffffffff1660e08173ffffffffffffffffffffffffffffffffffffffff16815250505050505050620005a8565b828054620001a69062000573565b90600052602060002090601f016020900481019282620001ca576000855562000216565b82601f10620001e557805160ff191683800117855562000216565b8280016001018555821562000216579182015b8281111562000215578251825591602001919060010190620001f8565b5b50905062000225919062000237565b5090565b615b778062000fb083390190565b5b808211156200025257600081600090555060010162000238565b5090565b6000604051905090565b600080fd5b600080fd5b600080fd5b600080fd5b6000601f19601f8301169050919050565b7f4e487b7100000000000000000000000000000000000000000000000000000000600052604160045260246000fd5b620002bf8262000274565b810181811067ffffffffffffffff82111715620002e157620002e062000285565b5b80604052505050565b6000620002f662000256565b9050620003048282620002b4565b919050565b600067ffffffffffffffff82111562000327576200032662000285565b5b620003328262000274565b9050602081019050919050565b60005b838110156200035f57808201518184015260208101905062000342565b838111156200036f576000848401525b50505050565b60006200038c620003868462000309565b620002ea565b905082815260208101848484011115620003ab57620003aa6200026f565b5b620003b88482856200033f565b509392505050565b600082601f830112620003d857620003d76200026a565b5b8151620003ea84826020860162000375565b91505092915050565b600073ffffffffffffffffffffffffffffffffffffffff82169050919050565b60006200042082620003f3565b9050919050565b620004328162000413565b81146200043e57600080fd5b50565b600081519050620004528162000427565b92915050565b60006200046582620003f3565b9050919050565b620004778162000458565b81146200048357600080fd5b50565b60008151905062000497816200046c565b92915050565b600080600080600060a08688031215620004bc57620004bb62000260565b5b600086015167ffffffffffffffff811115620004dd57620004dc62000265565b5b620004eb88828901620003c0565b9550506020620004fe8882890162000441565b9450506040620005118882890162000441565b9350506060620005248882890162000441565b9250506080620005378882890162000486565b9150509295509295909350565b7f4e487b7100000000000000000000000000000000000000000000000000000000600052602260045260246000fd5b600060028204905060018216806200058c57607f821691505b602082108103620005a257620005a162000544565b5b50919050565b60805160a05160c05160e0516109b2620005fe6000396000818161035b015261048d015260008181610156015261031701526000818161025201526102f601526000818161022e015261027c01526109b26000f3fe608060405234801561001057600080fd5b506004361061007d5760003560e01c80635c60da1b1161005b5780635c60da1b146100dc57806382689cae146100fa578063bf335e6214610118578063e70abe92146101365761007d565b806305a2ee2a1461008257806334b366f9146100a057806354fd4d50146100be575b600080fd5b61008a610154565b60405161009791906105df565b60405180910390f35b6100a8610178565b6040516100b591906105df565b60405180910390f35b6100c661019e565b6040516100d39190610693565b60405180910390f35b6100e461022c565b6040516100f19190610714565b60405180910390f35b610102610250565b60405161010f9190610750565b60405180910390f35b610120610274565b60405161012d91906105df565b60405180910390f35b61013e61048b565b60405161014b919061078c565b60405180910390f35b7f000000000000000000000000000000000000000000000000000000000000000081565b600160009054906101000a900473ffffffffffffffffffffffffffffffffffffffff1681565b600080546101ab906107d6565b80601f01602080910402602001604051908101604052809291908181526020018280546101d7906107d6565b80156102245780601f106101f957610100808354040283529160200191610224565b820191906000526020600020905b81548152906001019060200180831161020757829003601f168201915b505050505081565b7f000000000000000000000000000000000000000000000000000000000000000081565b7f000000000000000000000000000000000000000000000000000000000000000081565b6000806102d67f00000000000000000000000000000000000000000000000000000000000000006040518060400160405280601081526020017f4372656174696f6e206661696c757265000000000000000000000000000000008152506104af565b90508073ffffffffffffffffffffffffffffffffffffffff1663f8c8765e7f00000000000000000000000000000000000000000000000000000000000000007f0000000000000000000000000000000000000000000000000000000000000000600160009054906101000a900473ffffffffffffffffffffffffffffffffffffffff167f00000000000000000000000000000000000000000000000000000000000000006040518563ffffffff1660e01b81526004016103999493929190610807565b600060405180830381600087803b1580156103b357600080fd5b505af11580156103c7573d6000803e3d6000fd5b505050508073ffffffffffffffffffffffffffffffffffffffff1663f2fde38b336040518263ffffffff1660e01b815260040161040491906105df565b600060405180830381600087803b15801561041e57600080fd5b505af1158015610432573d6000803e3d6000fd5b505050503373ffffffffffffffffffffffffffffffffffffffff167f14cb25cca821184a88389fa7823ef6a4cd65897a89cbdcf5169542b8d790478b8260405161047c91906105df565b60405180910390a28091505090565b7f000000000000000000000000000000000000000000000000000000000000000081565b6000806104bb84610543565b90506037602082016000f09150600073ffffffffffffffffffffffffffffffffffffffff168273ffffffffffffffffffffffffffffffffffffffff161415839061053b576040517f08c379a00000000000000000000000000000000000000000000000000000000081526004016105329190610693565b60405180910390fd5b505092915050565b6060693d602d80600a3d3981f360b01b69363d3d373d3d3d363d7360b01b836e5af43d82803e903d91602b57fd5bf360881b604051602001610588949392919061092e565b6040516020818303038152906040529050919050565b600073ffffffffffffffffffffffffffffffffffffffff82169050919050565b60006105c98261059e565b9050919050565b6105d9816105be565b82525050565b60006020820190506105f460008301846105d0565b92915050565b600081519050919050565b600082825260208201905092915050565b60005b83811015610634578082015181840152602081019050610619565b83811115610643576000848401525b50505050565b6000601f19601f8301169050919050565b6000610665826105fa565b61066f8185610605565b935061067f818560208601610616565b61068881610649565b840191505092915050565b600060208201905081810360008301526106ad818461065a565b905092915050565b6000819050919050565b60006106da6106d56106d08461059e565b6106b5565b61059e565b9050919050565b60006106ec826106bf565b9050919050565b60006106fe826106e1565b9050919050565b61070e816106f3565b82525050565b60006020820190506107296000830184610705565b92915050565b600061073a826106e1565b9050919050565b61074a8161072f565b82525050565b60006020820190506107656000830184610741565b92915050565b60006107768261059e565b9050919050565b6107868161076b565b82525050565b60006020820190506107a1600083018461077d565b92915050565b7f4e487b7100000000000000000000000000000000000000000000000000000000600052602260045260246000fd5b600060028204905060018216806107ee57607f821691505b602082108103610801576108006107a7565b5b50919050565b600060808201905061081c60008301876105d0565b61082960208301866105d0565b61083660408301856105d0565b610843606083018461077d565b95945050505050565b60007fffffffffffffffffffff0000000000000000000000000000000000000000000082169050919050565b6000819050919050565b61089361088e8261084c565b610878565b82525050565b60008160601b9050919050565b60006108b182610899565b9050919050565b60006108c3826108a6565b9050919050565b6108db6108d6826105be565b6108b8565b82525050565b60007fffffffffffffffffffffffffffffff000000000000000000000000000000000082169050919050565b6000819050919050565b610928610923826108e1565b61090d565b82525050565b600061093a8287610882565b600a8201915061094a8286610882565b600a8201915061095a82856108ca565b60148201915061096a8284610917565b600f820191508190509594505050505056fea264697066735822122074814ec017393bb64dd4d55d4a93d1f341f7e32c6eec3dcff7819ea47dead60f64736f6c634300080d003360806040523480156200001157600080fd5b5062000032620000266200005360201b60201c565b6200005b60201b60201c565b6001600060146101000a81548160ff0219169083151502179055506200011f565b600033905090565b60008060009054906101000a900473ffffffffffffffffffffffffffffffffffffffff169050816000806101000a81548173ffffffffffffffffffffffffffffffffffffffff021916908373ffffffffffffffffffffffffffffffffffffffff1602179055508173ffffffffffffffffffffffffffffffffffffffff168173ffffffffffffffffffffffffffffffffffffffff167f8be0079c531659141344cd1fd0a4f28419497f9722a3daafe3b4186f6b6457e060405160405180910390a35050565b615a48806200012f6000396000f3fe6080604052600436106101cd5760003560e01c80638322fff2116100f7578063ac95f50c11610095578063e70abe9211610064578063e70abe9214610667578063ea1d5ae614610692578063f2fde38b146106d0578063f8c8765e146106f9576101cd565b8063ac95f50c146105a8578063b6b55f25146105e5578063c311d0491461060e578063d3c7dfa914610637576101cd565b806394e05b2c116100d157806394e05b2c146104d357806394f6113414610511578063a48903371461053a578063a85c38ef14610565576101cd565b80638322fff2146104545780638cd4426d1461047f5780638da5cb5b146104a8576101cd565b80634dd8b01a1161016f57806362ba056f1161013e57806362ba056f146103d0578063715018a6146103fb5780638129fc1c1461041257806382689cae14610429576101cd565b80634dd8b01a14610321578063514fcac714610351578063573ea5751461037a57806361383805146103a5576101cd565b80632e1a7d4d116101ab5780632e1a7d4d14610267578063301249d914610290578063325314e5146102b957806334b366f9146102f6576101cd565b80630c5ad571146101d2578063163de5e5146101fb5780631928b3cb14610226575b600080fd5b3480156101de57600080fd5b506101f960048036038101906101f49190614040565b610722565b005b34801561020757600080fd5b506102106107b4565b60405161021d91906140ab565b60405180910390f35b34801561023257600080fd5b5061024d600480360381019061024891906140c6565b6107ba565b60405161025e95949392919061415d565b60405180910390f35b34801561027357600080fd5b5061028e600480360381019061028991906141b0565b610861565b005b34801561029c57600080fd5b506102b760048036038101906102b291906141dd565b610ad2565b005b3480156102c557600080fd5b506102e060048036038101906102db91906141b0565b610b5a565b6040516102ed9190614235565b60405180910390f35b34801561030257600080fd5b5061030b610b7e565b60405161031891906142cf565b60405180910390f35b61033b6004803603810190610336919061430f565b610ba4565b60405161034891906140ab565b60405180910390f35b34801561035d57600080fd5b50610378600480360381019061037391906141b0565b610bc0565b005b34801561038657600080fd5b5061038f610e45565b60405161039c91906143bd565b60405180910390f35b3480156103b157600080fd5b506103ba610edd565b6040516103c791906140ab565b60405180910390f35b3480156103dc57600080fd5b506103e5610f8d565b6040516103f291906140ab565b60405180910390f35b34801561040757600080fd5b50610410610f9a565b005b34801561041e57600080fd5b50610427611022565b005b34801561043557600080fd5b5061043e6110df565b60405161044b91906143f9565b60405180910390f35b34801561046057600080fd5b50610469611105565b6040516104769190614435565b60405180910390f35b34801561048b57600080fd5b506104a660048036038101906104a1919061447c565b61111d565b005b3480156104b457600080fd5b506104bd6112e3565b6040516104ca9190614435565b60405180910390f35b3480156104df57600080fd5b506104fa60048036038101906104f591906141b0565b61130c565b60405161050892919061455f565b60405180910390f35b34801561051d57600080fd5b50610538600480360381019061053391906141b0565b61139b565b005b34801561054657600080fd5b5061054f61173c565b60405161055c91906140ab565b60405180910390f35b34801561057157600080fd5b5061058c600480360381019061058791906141b0565b611742565b60405161059f9796959493929190614615565b60405180910390f35b3480156105b457600080fd5b506105cf60048036038101906105ca91906140c6565b611791565b6040516105dc91906140ab565b60405180910390f35b3480156105f157600080fd5b5061060c600480360381019061060791906141b0565b6117a9565b005b34801561061a57600080fd5b50610635600480360381019061063091906141b0565b6119c7565b005b610651600480360381019061064c9190614684565b611af1565b60405161065e91906140ab565b60405180910390f35b34801561067357600080fd5b5061067c611b0d565b6040516106899190614435565b60405180910390f35b34801561069e57600080fd5b506106b960048036038101906106b491906141b0565b611b33565b6040516106c79291906146ff565b60405180910390f35b3480156106dc57600080fd5b506106f760048036038101906106f29190614728565b611db8565b005b34801561070557600080fd5b50610720600480360381019061071b9190614781565b611eaf565b005b61072a6121ba565b73ffffffffffffffffffffffffffffffffffffffff166107486112e3565b73ffffffffffffffffffffffffffffffffffffffff161461079e576040517f08c379a000000000000000000000000000000000000000000000000000000000815260040161079590614845565b60405180910390fd5b6107a7826117a9565b6107b0816121c2565b5050565b600b5481565b60008060008060006107cb86612944565b73ffffffffffffffffffffffffffffffffffffffff166355f57510306040518263ffffffff1660e01b81526004016108039190614435565b60a060405180830381865afa158015610820573d6000803e3d6000fd5b505050506040513d601f19601f8201168201806040525081019061084491906148e9565b809550819650829750839850849950505050505091939590929450565b807f5f616d6f756e7400000000000000000000000000000000000000000000000000600082036108c857806040517f227a7b4d0000000000000000000000000000000000000000000000000000000081526004016108bf9190614235565b60405180910390fd5b6108d06121ba565b73ffffffffffffffffffffffffffffffffffffffff166108ee6112e3565b73ffffffffffffffffffffffffffffffffffffffff1614610944576040517f08c379a000000000000000000000000000000000000000000000000000000000815260040161093b90614845565b60405180910390fd5b61094c610edd565b8311156109995761095b610edd565b836040517f3cb0273a000000000000000000000000000000000000000000000000000000008152600401610990929190614964565b60405180910390fd5b600560009054906101000a900473ffffffffffffffffffffffffffffffffffffffff1673ffffffffffffffffffffffffffffffffffffffff1663a9059cbb6109df6112e3565b856040518363ffffffff1660e01b81526004016109fd92919061498d565b6020604051808303816000875af1158015610a1c573d6000803e3d6000fd5b505050506040513d601f19601f82011682018060405250810190610a4091906149e2565b610a7f576040517f08c379a0000000000000000000000000000000000000000000000000000000008152600401610a7690614a5b565b60405180910390fd5b3373ffffffffffffffffffffffffffffffffffffffff167f884edad9ce6fa2440d8a54cc123490eb96d2768479d49ff9c7366125a942436484604051610ac591906140ab565b60405180910390a2505050565b610ada6121ba565b73ffffffffffffffffffffffffffffffffffffffff16610af86112e3565b73ffffffffffffffffffffffffffffffffffffffff1614610b4e576040517f08c379a0000000000000000000000000000000000000000000000000000000008152600401610b4590614845565b60405180910390fd5b610b57816121c2565b50565b60088181548110610b6a57600080fd5b906000526020600020016000915090505481565b600460009054906101000a900473ffffffffffffffffffffffffffffffffffffffff1681565b6000610bb48787878787876129e9565b90509695505050505050565b610bc86121ba565b73ffffffffffffffffffffffffffffffffffffffff16610be66112e3565b73ffffffffffffffffffffffffffffffffffffffff1614610c3c576040517f08c379a0000000000000000000000000000000000000000000000000000000008152600401610c3390614845565b60405180910390fd5b6000600a60008381526020019081526020016000206040518060e001604052908160008201548152602001600182015481526020016002820154815260200160038201548152602001600482015481526020016005820160009054906101000a900460ff166001811115610cb357610cb261459e565b5b6001811115610cc557610cc461459e565b5b81526020016006820154815250509050600081602001511315610d0857610cef8160200151612e42565b60066000828254610d009190614aaa565b925050819055505b600160009054906101000a900473ffffffffffffffffffffffffffffffffffffffff1673ffffffffffffffffffffffffffffffffffffffff1663ee8ca3b582608001516040518263ffffffff1660e01b8152600401610d679190614235565b600060405180830381600087803b158015610d8157600080fd5b505af1158015610d95573d6000803e3d6000fd5b50505050600a600083815260200190815260200160002060008082016000905560018201600090556002820160009055600382016000905560048201600090556005820160006101000a81549060ff0219169055600682016000905550503073ffffffffffffffffffffffffffffffffffffffff167fdd003742fb214507783ce004fe55f5ac14f89c6de4a7cd7487e47eb091c6226583604051610e3991906140ab565b60405180910390a25050565b6000600160009054906101000a900473ffffffffffffffffffffffffffffffffffffffff1673ffffffffffffffffffffffffffffffffffffffff1663573ea5756040518163ffffffff1660e01b8152600401602060405180830381865afa158015610eb4573d6000803e3d6000fd5b505050506040513d601f19601f82011682018060405250810190610ed89190614af3565b905090565b6000600654600560009054906101000a900473ffffffffffffffffffffffffffffffffffffffff1673ffffffffffffffffffffffffffffffffffffffff166370a08231306040518263ffffffff1660e01b8152600401610f3d9190614435565b602060405180830381865afa158015610f5a573d6000803e3d6000fd5b505050506040513d601f19601f82011682018060405250810190610f7e9190614b35565b610f889190614aaa565b905090565b6000600880549050905090565b610fa26121ba565b73ffffffffffffffffffffffffffffffffffffffff16610fc06112e3565b73ffffffffffffffffffffffffffffffffffffffff1614611016576040517f08c379a000000000000000000000000000000000000000000000000000000000815260040161100d90614845565b60405180910390fd5b6110206000612e63565b565b600060149054906101000a900460ff1615611072576040517f08c379a000000000000000000000000000000000000000000000000000000000815260040161106990614bae565b60405180910390fd5b600060159054906101000a900460ff16156110c2576040517f08c379a00000000000000000000000000000000000000000000000000000000081526004016110b990614c1a565b60405180910390fd5b6001600060156101000a81548160ff021916908315150217905550565b600560009054906101000a900473ffffffffffffffffffffffffffffffffffffffff1681565b73eeeeeeeeeeeeeeeeeeeeeeeeeeeeeeeeeeeeeeee81565b6111256121ba565b73ffffffffffffffffffffffffffffffffffffffff166111436112e3565b73ffffffffffffffffffffffffffffffffffffffff1614611199576040517f08c379a000000000000000000000000000000000000000000000000000000000815260040161119090614845565b60405180910390fd5b600560009054906101000a900473ffffffffffffffffffffffffffffffffffffffff1673ffffffffffffffffffffffffffffffffffffffff168273ffffffffffffffffffffffffffffffffffffffff1603611220576040517f6b18909700000000000000000000000000000000000000000000000000000000815260040160405180910390fd5b8173ffffffffffffffffffffffffffffffffffffffff1663a9059cbb6112446112e3565b836040518363ffffffff1660e01b815260040161126292919061498d565b6020604051808303816000875af1158015611281573d6000803e3d6000fd5b505050506040513d601f19601f820116820180604052508101906112a591906149e2565b507f8aec0ce3dadffacf4b7a963e0fed1ff2e6151b4c95d4a65acafa9d129963040282826040516112d792919061498d565b60405180910390a15050565b60008060009054906101000a900473ffffffffffffffffffffffffffffffffffffffff16905090565b6000606061131983611b33565b50809250506394f6113460e01b8360405160240161133791906140ab565b604051602081830303815290604052907bffffffffffffffffffffffffffffffffffffffffffffffffffffffff19166020820180517bffffffffffffffffffffffffffffffffffffffffffffffffffffffff83818316178352505050509050915091565b600160009054906101000a900473ffffffffffffffffffffffffffffffffffffffff1673ffffffffffffffffffffffffffffffffffffffff163373ffffffffffffffffffffffffffffffffffffffff161461142b576040517f08c379a000000000000000000000000000000000000000000000000000000000815260040161142290614c86565b60405180910390fd5b60008061143783611b33565b9150915081611472576040517f2e0c0f7100000000000000000000000000000000000000000000000000000000815260040160405180910390fd5b6000600a60008581526020019081526020016000206040518060e001604052908160008201548152602001600182015481526020016002820154815260200160038201548152602001600482015481526020016005820160009054906101000a900460ff1660018111156114e9576114e861459e565b5b60018111156114fb576114fa61459e565b5b8152602001600682015481525050905060008160200151131561153e576115258160200151612e42565b600660008282546115369190614aaa565b925050819055505b6000600167ffffffffffffffff81111561155b5761155a613e28565b5b60405190808252806020026020018201604052801561159457816020015b611581613da4565b8152602001906001900390816115795790505b509050604051806060016040528083600001518152602001836020015181526020018360400151815250816000815181106115d2576115d1614ca6565b5b6020026020010181905250600a600086815260200190815260200160002060008082016000905560018201600090556002820160009055600382016000905560048201600090556005820160006101000a81549060ff021916905560068201600090555050611640816121c2565b600080600160009054906101000a900473ffffffffffffffffffffffffffffffffffffffff1673ffffffffffffffffffffffffffffffffffffffff1663b810c6366040518163ffffffff1660e01b81526004016040805180830381865afa1580156116af573d6000803e3d6000fd5b505050506040513d601f19601f820116820180604052508101906116d39190614cea565b915091506116e18282612f27565b3073ffffffffffffffffffffffffffffffffffffffff167fc3813414294c4ab73f9881fe38ec4294109bb7bfce21e6909e91fab10d61aa4f88878560405161172b93929190614d2a565b60405180910390a250505050505050565b60065481565b600a6020528060005260406000206000915090508060000154908060010154908060020154908060030154908060040154908060050160009054906101000a900460ff16908060060154905087565b60096020528060005260406000206000915090505481565b807f5f616d6f756e74000000000000000000000000000000000000000000000000006000820361181057806040517f227a7b4d0000000000000000000000000000000000000000000000000000000081526004016118079190614235565b60405180910390fd5b6118186121ba565b73ffffffffffffffffffffffffffffffffffffffff166118366112e3565b73ffffffffffffffffffffffffffffffffffffffff161461188c576040517f08c379a000000000000000000000000000000000000000000000000000000000815260040161188390614845565b60405180910390fd5b600560009054906101000a900473ffffffffffffffffffffffffffffffffffffffff1673ffffffffffffffffffffffffffffffffffffffff166323b872dd6118d26112e3565b30866040518463ffffffff1660e01b81526004016118f293929190614d61565b6020604051808303816000875af1158015611911573d6000803e3d6000fd5b505050506040513d601f19601f8201168201806040525081019061193591906149e2565b611974576040517f08c379a000000000000000000000000000000000000000000000000000000000815260040161196b90614de4565b60405180910390fd5b3373ffffffffffffffffffffffffffffffffffffffff167fe1fffcc4923d04b559f4d29a8bfc6cda04eb5b0d3c460751c2402c5c5cc9109c846040516119ba91906140ab565b60405180910390a2505050565b6119cf6121ba565b73ffffffffffffffffffffffffffffffffffffffff166119ed6112e3565b73ffffffffffffffffffffffffffffffffffffffff1614611a43576040517f08c379a0000000000000000000000000000000000000000000000000000000008152600401611a3a90614845565b60405180910390fd5b6000611a4d6112e3565b73ffffffffffffffffffffffffffffffffffffffff1682604051611a7090614e35565b60006040518083038185875af1925050503d8060008114611aad576040519150601f19603f3d011682016040523d82523d6000602084013e611ab2565b606091505b5050905080611aed576040517f0ca79afd00000000000000000000000000000000000000000000000000000000815260040160405180910390fd5b5050565b6000611b02868686868660006129e9565b905095945050505050565b600160009054906101000a900473ffffffffffffffffffffffffffffffffffffffff1681565b6000806000600a60008581526020019081526020016000206040518060e001604052908160008201548152602001600182015481526020016002820154815260200160038201548152602001600482015481526020016005820160009054906101000a900460ff166001811115611bad57611bac61459e565b5b6001811115611bbf57611bbe61459e565b5b8152602001600682015481525050905060008160c0015114611d2557600080611be661303e565b73ffffffffffffffffffffffffffffffffffffffff1663c39def0b7f7355534400000000000000000000000000000000000000000000000000000000611c2f8660000151612944565b73ffffffffffffffffffffffffffffffffffffffff1663cdf456e16040518163ffffffff1660e01b8152600401602060405180830381865afa158015611c79573d6000803e3d6000fd5b505050506040513d601f19601f82011682018060405250810190611c9d9190614e5f565b6040518363ffffffff1660e01b8152600401611cba929190614e8c565b6040805180830381865afa158015611cd6573d6000803e3d6000fd5b505050506040513d601f19601f82011682018060405250810190611cfa9190614eb5565b915091508080611d0e57508260c001518210155b15611d225760008094509450505050611db3565b50505b60006001811115611d3957611d3861459e565b5b8160a001516001811115611d5057611d4f61459e565b5b03611d6857611d5e816130df565b9250925050611db3565b600180811115611d7b57611d7a61459e565b5b8160a001516001811115611d9257611d9161459e565b5b03611daa57611da081613149565b9250925050611db3565b60008092509250505b915091565b611dc06121ba565b73ffffffffffffffffffffffffffffffffffffffff16611dde6112e3565b73ffffffffffffffffffffffffffffffffffffffff1614611e34576040517f08c379a0000000000000000000000000000000000000000000000000000000008152600401611e2b90614845565b60405180910390fd5b600073ffffffffffffffffffffffffffffffffffffffff168173ffffffffffffffffffffffffffffffffffffffff1603611ea3576040517f08c379a0000000000000000000000000000000000000000000000000000000008152600401611e9a90614f67565b60405180910390fd5b611eac81612e63565b50565b600060149054906101000a900460ff1615611eff576040517f08c379a0000000000000000000000000000000000000000000000000000000008152600401611ef690614bae565b60405180910390fd5b600060159054906101000a900460ff1615611f4f576040517f08c379a0000000000000000000000000000000000000000000000000000000008152600401611f4690614c1a565b60405180910390fd5b6001600060156101000a81548160ff02191690831515021790555083600560006101000a81548173ffffffffffffffffffffffffffffffffffffffff021916908373ffffffffffffffffffffffffffffffffffffffff16021790555082600260006101000a81548173ffffffffffffffffffffffffffffffffffffffff021916908373ffffffffffffffffffffffffffffffffffffffff160217905550600260009054906101000a900473ffffffffffffffffffffffffffffffffffffffff1673ffffffffffffffffffffffffffffffffffffffff1663dacb2d017f467574757265734d61726b65744d616e616765720000000000000000000000006040518263ffffffff1660e01b81526004016120679190614ff9565b602060405180830381865afa158015612084573d6000803e3d6000fd5b505050506040513d601f19601f820116820180604052508101906120a89190615027565b600360006101000a81548173ffffffffffffffffffffffffffffffffffffffff021916908373ffffffffffffffffffffffffffffffffffffffff16021790555083600560006101000a81548173ffffffffffffffffffffffffffffffffffffffff021916908373ffffffffffffffffffffffffffffffffffffffff16021790555081600460006101000a81548173ffffffffffffffffffffffffffffffffffffffff021916908373ffffffffffffffffffffffffffffffffffffffff16021790555061217333612e63565b80600160006101000a81548173ffffffffffffffffffffffffffffffffffffffff021916908373ffffffffffffffffffffffffffffffffffffffff16021790555050505050565b600033905090565b60008151905060ff801681111561221057806040517f0a9fd21a00000000000000000000000000000000000000000000000000000000815260040161220791906140ab565b60405180910390fd5b6000805b828160ff161015612739576000848260ff168151811061223757612236614ca6565b5b60200260200101516000015190506000858360ff168151811061225d5761225c614ca6565b5b60200260200101516040015190506000868460ff168151811061228357612282614ca6565b5b6020026020010151602001519050600061229c84612944565b905060006122a9856107ba565b9450505050506122c68560001c60076131b390919063ffffffff16565b1561265357600081600f0b03612327576122df856131ef565b60008403612322576040517f227a7b4d0000000000000000000000000000000000000000000000000000000081526004016123199061507a565b60405180910390fd5b61264e565b60008482600f0b6123389190615093565b0361264d57612346856131ef565b8173ffffffffffffffffffffffffffffffffffffffff1663a8c92cf67f4b57454e544100000000000000000000000000000000000000000000000000006040518263ffffffff1660e01b815260040161239f9190614235565b600060405180830381600087803b1580156123b957600080fd5b505af11580156123cd573d6000803e3d6000fd5b505050508173ffffffffffffffffffffffffffffffffffffffff16635a1cbd2b6040518163ffffffff1660e01b8152600401600060405180830381600087803b15801561241957600080fd5b505af115801561242d573d6000803e3d6000fd5b50505050600061244561243f86612e42565b8461331a565b905061244f610edd565b811115612488576040517f165e0bf200000000000000000000000000000000000000000000000000000000815260040160405180910390fd5b6000600560009054906101000a900473ffffffffffffffffffffffffffffffffffffffff1673ffffffffffffffffffffffffffffffffffffffff1663a9059cbb600460009054906101000a900473ffffffffffffffffffffffffffffffffffffffff1673ffffffffffffffffffffffffffffffffffffffff166361d027b36040518163ffffffff1660e01b8152600401602060405180830381865afa158015612535573d6000803e3d6000fd5b505050506040513d601f19601f820116820180604052508101906125599190615027565b846040518363ffffffff1660e01b815260040161257792919061498d565b6020604051808303816000875af1158015612596573d6000803e3d6000fd5b505050506040513d601f19601f820116820180604052508101906125ba91906149e2565b9050806125f3576040517f165e0bf200000000000000000000000000000000000000000000000000000000815260040160405180910390fd5b3073ffffffffffffffffffffffffffffffffffffffff167f3b0d6de922de3f4d0570347a069fd8c8eadd06c43824276593cce7088079939d8a60405161263991906140ab565b60405180910390a250505050505050612726565b5b612697565b60008403612696576040517f227a7b4d00000000000000000000000000000000000000000000000000000000815260040161268d9061507a565b60405180910390fd5b5b60008312156126c6576126ab8385846133f6565b876126b69190615127565b96506126c18561358e565b612720565b60008313156126f5576126da83858461360d565b876126e59190615127565b96506126f08561358e565b61271f565b6000841461271e576127078483613808565b876127129190615127565b965061271d8561358e565b5b5b5b50505050505b80806127319061518a565b915050612214565b50600081111561293f5761274b610edd565b811115612784576040517f165e0bf200000000000000000000000000000000000000000000000000000000815260040160405180910390fd5b6000600560009054906101000a900473ffffffffffffffffffffffffffffffffffffffff1673ffffffffffffffffffffffffffffffffffffffff1663a9059cbb600460009054906101000a900473ffffffffffffffffffffffffffffffffffffffff1673ffffffffffffffffffffffffffffffffffffffff166361d027b36040518163ffffffff1660e01b8152600401602060405180830381865afa158015612831573d6000803e3d6000fd5b505050506040513d601f19601f820116820180604052508101906128559190615027565b846040518363ffffffff1660e01b815260040161287392919061498d565b6020604051808303816000875af1158015612892573d6000803e3d6000fd5b505050506040513d601f19601f820116820180604052508101906128b691906149e2565b9050806128ef576040517f165e0bf200000000000000000000000000000000000000000000000000000000815260040160405180910390fd5b3073ffffffffffffffffffffffffffffffffffffffff167f3b0d6de922de3f4d0570347a069fd8c8eadd06c43824276593cce7088079939d8360405161293591906140ab565b60405180910390a2505b505050565b6000600360009054906101000a900473ffffffffffffffffffffffffffffffffffffffff1673ffffffffffffffffffffffffffffffffffffffff1663e63bfadb836040518263ffffffff1660e01b81526004016129a19190614235565b602060405180830381865afa1580156129be573d6000803e3d6000fd5b505050506040513d601f19601f820116820180604052508101906129e29190615027565b9050919050565b60006129f485612e42565b7f5f73697a6544656c74610000000000000000000000000000000000000000000060008203612a5a57806040517f227a7b4d000000000000000000000000000000000000000000000000000000008152600401612a519190614235565b60405180910390fd5b612a626121ba565b73ffffffffffffffffffffffffffffffffffffffff16612a806112e3565b73ffffffffffffffffffffffffffffffffffffffff1614612ad6576040517f08c379a0000000000000000000000000000000000000000000000000000000008152600401612acd90614845565b60405180910390fd5b67016345785d8a0000471015612b2d574767016345785d8a00006040517f5c4a8f55000000000000000000000000000000000000000000000000000000008152600401612b249291906151ee565b60405180910390fd5b6000881315612bbd57612b3e610edd565b612b4789612e42565b1115612b9b57612b55610edd565b612b5e89612e42565b6040517f3cb0273a000000000000000000000000000000000000000000000000000000008152600401612b92929190614964565b60405180910390fd5b612ba488612e42565b60066000828254612bb59190615127565b925050819055505b6000600160009054906101000a900473ffffffffffffffffffffffffffffffffffffffff1673ffffffffffffffffffffffffffffffffffffffff1663b9f45adb306394f6113460e01b306394e05b2c60e01b600b54604051602401612c2291906140ab565b604051602081830303815290604052907bffffffffffffffffffffffffffffffffffffffffffffffffffffffff19166020820180517bffffffffffffffffffffffffffffffffffffffffffffffffffffffff838183161783525050505073eeeeeeeeeeeeeeeeeeeeeeeeeeeeeeeeeeeeeeee6040518663ffffffff1660e01b8152600401612cb4959493929190615252565b6020604051808303816000875af1158015612cd3573d6000803e3d6000fd5b505050506040513d601f19601f82011682018060405250810190612cf79190614e5f565b90506040518060e001604052808b81526020018a8152602001898152602001888152602001828152602001876001811115612d3557612d3461459e565b5b815260200186815250600a6000600b548152602001908152602001600020600082015181600001556020820151816001015560408201518160020155606082015181600301556080820151816004015560a08201518160050160006101000a81548160ff02191690836001811115612db057612daf61459e565b5b021790555060c082015181600601559050503073ffffffffffffffffffffffffffffffffffffffff167f8f08ab4b600854bacfbaba51c4409d4f9ba7a0b78c3ad7e93d43755e371f98e3600b548c8c8c8c8c604051612e14969594939291906152ac565b60405180910390a2600b6000815480929190612e2f9061530d565b9190505593505050509695505050505050565b6000808212612e515781612e5c565b81612e5b90615355565b5b9050919050565b60008060009054906101000a900473ffffffffffffffffffffffffffffffffffffffff169050816000806101000a81548173ffffffffffffffffffffffffffffffffffffffff021916908373ffffffffffffffffffffffffffffffffffffffff1602179055508173ffffffffffffffffffffffffffffffffffffffff168173ffffffffffffffffffffffffffffffffffffffff167f8be0079c531659141344cd1fd0a4f28419497f9722a3daafe3b4186f6b6457e060405160405180910390a35050565b73eeeeeeeeeeeeeeeeeeeeeeeeeeeeeeeeeeeeeeee73ffffffffffffffffffffffffffffffffffffffff168173ffffffffffffffffffffffffffffffffffffffff1603613027576000612f78610e45565b73ffffffffffffffffffffffffffffffffffffffff1683604051612f9b90614e35565b60006040518083038185875af1925050503d8060008114612fd8576040519150601f19603f3d011682016040523d82523d6000602084013e612fdd565b606091505b5050905080613021576040517f08c379a0000000000000000000000000000000000000000000000000000000008152600401613018906153e9565b60405180910390fd5b5061303a565b61303981613033610e45565b84613947565b5b5050565b6000600260009054906101000a900473ffffffffffffffffffffffffffffffffffffffff1673ffffffffffffffffffffffffffffffffffffffff1663dacb2d016040518163ffffffff1660e01b8152600401613099906154a1565b602060405180830381865afa1580156130b6573d6000803e3d6000fd5b505050506040513d601f19601f820116820180604052508101906130da9190615027565b905090565b60008060006130f96130f48560000151612944565b6139cd565b905060008460400151131561311b578360600151811115819250925050613144565b60008460400151121561313b578360600151811015819250925050613144565b60008192509250505b915091565b600080600061316361315e8560000151612944565b6139cd565b90506000846040015113156131855783606001518110158192509250506131ae565b6000846040015112156131a55783606001518111158192509250506131ae565b60008192509250505b915091565b600080600883901c9050600060ff84166001901b9050600081866000016000858152602001908152602001600020541614159250505092915050565b600060096000838152602001908152602001600020549050600880549050811061321c5761321b6154cd565b5b60096000838152602001908152602001600020600090555b60016008805490506132469190614aaa565b8110156132d4576008600182018154811061326457613263614ca6565b5b90600052602060002001546008828154811061328357613282614ca6565b5b90600052602060002001819055508060096000600884815481106132aa576132a9614ca6565b5b90600052602060002001548152602001908152602001600020819055508080600101915050613234565b60088054806132e6576132e56154fc565b5b600190038181906000526020600020016000905590556133168260001c60006007613a859092919063ffffffff16565b5050565b6000612710600460009054906101000a900473ffffffffffffffffffffffffffffffffffffffff1673ffffffffffffffffffffffffffffffffffffffff166324bcdfbd6040518163ffffffff1660e01b8152600401602060405180830381865afa15801561338c573d6000803e3d6000fd5b505050506040513d601f19601f820116820180604052508101906133b09190614b35565b846133bb919061552b565b6133c591906155b4565b9050670de0b6b3a7640000816133da846139cd565b6133e4919061552b565b6133ee91906155b4565b905092915050565b600080831461351b578173ffffffffffffffffffffffffffffffffffffffff1663a28a2bc0847f4b57454e544100000000000000000000000000000000000000000000000000006040518363ffffffff1660e01b815260040161345a9291906155e5565b600060405180830381600087803b15801561347457600080fd5b505af1158015613488573d6000803e3d6000fd5b5050505061349e61349884612e42565b8361331a565b90508173ffffffffffffffffffffffffffffffffffffffff166388a3c84882866134c8919061560e565b6040518263ffffffff1660e01b81526004016134e491906156a2565b600060405180830381600087803b1580156134fe57600080fd5b505af1158015613512573d6000803e3d6000fd5b50505050613587565b8173ffffffffffffffffffffffffffffffffffffffff166388a3c848856040518263ffffffff1660e01b815260040161355491906156a2565b600060405180830381600087803b15801561356e57600080fd5b505af1158015613582573d6000803e3d6000fd5b505050505b9392505050565b6135a58160001c60076131b390919063ffffffff16565b61360a57600880549050600960008381526020019081526020016000208190555060088190806001815401808255809150506001900390600052602060002001600090919091909150556136098160001c60016007613a859092919063ffffffff16565b5b50565b60008061361985612e42565b9050613623610edd565b81111561367057613632610edd565b816040517f3cb0273a000000000000000000000000000000000000000000000000000000008152600401613667929190614964565b60405180910390fd5b600084146137945761368a61368485612e42565b8461331a565b91508273ffffffffffffffffffffffffffffffffffffffff166388a3c84883876136b4919061560e565b6040518263ffffffff1660e01b81526004016136d091906156a2565b600060405180830381600087803b1580156136ea57600080fd5b505af11580156136fe573d6000803e3d6000fd5b505050508273ffffffffffffffffffffffffffffffffffffffff1663a28a2bc0857f4b57454e544100000000000000000000000000000000000000000000000000006040518363ffffffff1660e01b815260040161375d9291906155e5565b600060405180830381600087803b15801561377757600080fd5b505af115801561378b573d6000803e3d6000fd5b50505050613800565b8273ffffffffffffffffffffffffffffffffffffffff166388a3c848866040518263ffffffff1660e01b81526004016137cd91906156a2565b600060405180830381600087803b1580156137e757600080fd5b505af11580156137fb573d6000803e3d6000fd5b505050505b509392505050565b60008173ffffffffffffffffffffffffffffffffffffffff1663a28a2bc0847f4b57454e544100000000000000000000000000000000000000000000000000006040518363ffffffff1660e01b81526004016138659291906155e5565b600060405180830381600087803b15801561387f57600080fd5b505af1158015613893573d6000803e3d6000fd5b505050506138a96138a384612e42565b8361331a565b90508173ffffffffffffffffffffffffffffffffffffffff166388a3c8487fffffffffffffffffffffffffffffffffffffffffffffffffffffffffffffffff836138f391906156bd565b6040518263ffffffff1660e01b815260040161390f91906156a2565b600060405180830381600087803b15801561392957600080fd5b505af115801561393d573d6000803e3d6000fd5b5050505092915050565b6139c88363a9059cbb60e01b848460405160240161396692919061498d565b604051602081830303815290604052907bffffffffffffffffffffffffffffffffffffffffffffffffffffffff19166020820180517bffffffffffffffffffffffffffffffffffffffffffffffffffffffff8381831617835250505050613aaa565b505050565b60008060008373ffffffffffffffffffffffffffffffffffffffff1663d24378eb6040518163ffffffff1660e01b81526004016040805180830381865afa158015613a1c573d6000803e3d6000fd5b505050506040513d601f19601f82011682018060405250810190613a409190614eb5565b915091508015613a7b576040517ebfc92100000000000000000000000000000000000000000000000000000000815260040160405180910390fd5b8192505050919050565b8015613a9a57613a958383613b71565b613aa5565b613aa48383613baf565b5b505050565b6000613b0c826040518060400160405280602081526020017f5361666545524332303a206c6f772d6c6576656c2063616c6c206661696c65648152508573ffffffffffffffffffffffffffffffffffffffff16613bee9092919063ffffffff16565b9050600081511115613b6c5780806020019051810190613b2c91906149e2565b613b6b576040517f08c379a0000000000000000000000000000000000000000000000000000000008152600401613b6290615846565b60405180910390fd5b5b505050565b6000600882901c9050600060ff83166001901b9050808460000160008481526020019081526020016000206000828254179250508190555050505050565b6000600882901c9050600060ff83166001901b905080198460000160008481526020019081526020016000206000828254169250508190555050505050565b6060613bfd8484600085613c06565b90509392505050565b606082471015613c4b576040517f08c379a0000000000000000000000000000000000000000000000000000000008152600401613c42906158d8565b60405180910390fd5b613c5485613d1a565b613c93576040517f08c379a0000000000000000000000000000000000000000000000000000000008152600401613c8a90615944565b60405180910390fd5b6000808673ffffffffffffffffffffffffffffffffffffffff168587604051613cbc9190615995565b60006040518083038185875af1925050503d8060008114613cf9576040519150601f19603f3d011682016040523d82523d6000602084013e613cfe565b606091505b5091509150613d0e828286613d3d565b92505050949350505050565b6000808273ffffffffffffffffffffffffffffffffffffffff163b119050919050565b60608315613d4d57829050613d9d565b600083511115613d605782518084602001fd5b816040517f08c379a0000000000000000000000000000000000000000000000000000000008152600401613d9491906159f0565b60405180910390fd5b9392505050565b60405180606001604052806000801916815260200160008152602001600081525090565b6000604051905090565b600080fd5b600080fd5b6000819050919050565b613def81613ddc565b8114613dfa57600080fd5b50565b600081359050613e0c81613de6565b92915050565b600080fd5b6000601f19601f8301169050919050565b7f4e487b7100000000000000000000000000000000000000000000000000000000600052604160045260246000fd5b613e6082613e17565b810181811067ffffffffffffffff82111715613e7f57613e7e613e28565b5b80604052505050565b6000613e92613dc8565b9050613e9e8282613e57565b919050565b600067ffffffffffffffff821115613ebe57613ebd613e28565b5b602082029050602081019050919050565b600080fd5b600080fd5b6000819050919050565b613eec81613ed9565b8114613ef757600080fd5b50565b600081359050613f0981613ee3565b92915050565b6000819050919050565b613f2281613f0f565b8114613f2d57600080fd5b50565b600081359050613f3f81613f19565b92915050565b600060608284031215613f5b57613f5a613ed4565b5b613f656060613e88565b90506000613f7584828501613efa565b6000830152506020613f8984828501613f30565b6020830152506040613f9d84828501613f30565b60408301525092915050565b6000613fbc613fb784613ea3565b613e88565b90508083825260208201905060608402830185811115613fdf57613fde613ecf565b5b835b818110156140085780613ff48882613f45565b845260208401935050606081019050613fe1565b5050509392505050565b600082601f83011261402757614026613e12565b5b8135614037848260208601613fa9565b91505092915050565b6000806040838503121561405757614056613dd2565b5b600061406585828601613dfd565b925050602083013567ffffffffffffffff81111561408657614085613dd7565b5b61409285828601614012565b9150509250929050565b6140a581613ddc565b82525050565b60006020820190506140c0600083018461409c565b92915050565b6000602082840312156140dc576140db613dd2565b5b60006140ea84828501613efa565b91505092915050565b600067ffffffffffffffff82169050919050565b614110816140f3565b82525050565b60006fffffffffffffffffffffffffffffffff82169050919050565b61413b81614116565b82525050565b600081600f0b9050919050565b61415781614141565b82525050565b600060a0820190506141726000830188614107565b61417f6020830187614107565b61418c6040830186614132565b6141996060830185614132565b6141a6608083018461414e565b9695505050505050565b6000602082840312156141c6576141c5613dd2565b5b60006141d484828501613dfd565b91505092915050565b6000602082840312156141f3576141f2613dd2565b5b600082013567ffffffffffffffff81111561421157614210613dd7565b5b61421d84828501614012565b91505092915050565b61422f81613ed9565b82525050565b600060208201905061424a6000830184614226565b92915050565b600073ffffffffffffffffffffffffffffffffffffffff82169050919050565b6000819050919050565b600061429561429061428b84614250565b614270565b614250565b9050919050565b60006142a78261427a565b9050919050565b60006142b98261429c565b9050919050565b6142c9816142ae565b82525050565b60006020820190506142e460008301846142c0565b92915050565b600281106142f757600080fd5b50565b600081359050614309816142ea565b92915050565b60008060008060008060c0878903121561432c5761432b613dd2565b5b600061433a89828a01613efa565b965050602061434b89828a01613f30565b955050604061435c89828a01613f30565b945050606061436d89828a01613dfd565b935050608061437e89828a016142fa565b92505060a061438f89828a01613dfd565b9150509295509295509295565b60006143a782614250565b9050919050565b6143b78161439c565b82525050565b60006020820190506143d260008301846143ae565b92915050565b60006143e38261429c565b9050919050565b6143f3816143d8565b82525050565b600060208201905061440e60008301846143ea565b92915050565b600061441f82614250565b9050919050565b61442f81614414565b82525050565b600060208201905061444a6000830184614426565b92915050565b61445981614414565b811461446457600080fd5b50565b60008135905061447681614450565b92915050565b6000806040838503121561449357614492613dd2565b5b60006144a185828601614467565b92505060206144b285828601613dfd565b9150509250929050565b60008115159050919050565b6144d1816144bc565b82525050565b600081519050919050565b600082825260208201905092915050565b60005b838110156145115780820151818401526020810190506144f6565b83811115614520576000848401525b50505050565b6000614531826144d7565b61453b81856144e2565b935061454b8185602086016144f3565b61455481613e17565b840191505092915050565b600060408201905061457460008301856144c8565b81810360208301526145868184614526565b90509392505050565b61459881613f0f565b82525050565b7f4e487b7100000000000000000000000000000000000000000000000000000000600052602160045260246000fd5b600281106145de576145dd61459e565b5b50565b60008190506145ef826145cd565b919050565b60006145ff826145e1565b9050919050565b61460f816145f4565b82525050565b600060e08201905061462a600083018a614226565b614637602083018961458f565b614644604083018861458f565b614651606083018761409c565b61465e6080830186614226565b61466b60a0830185614606565b61467860c083018461409c565b98975050505050505050565b600080600080600060a086880312156146a05761469f613dd2565b5b60006146ae88828901613efa565b95505060206146bf88828901613f30565b94505060406146d088828901613f30565b93505060606146e188828901613dfd565b92505060806146f2888289016142fa565b9150509295509295909350565b600060408201905061471460008301856144c8565b614721602083018461409c565b9392505050565b60006020828403121561473e5761473d613dd2565b5b600061474c84828501614467565b91505092915050565b61475e8161439c565b811461476957600080fd5b50565b60008135905061477b81614755565b92915050565b6000806000806080858703121561479b5761479a613dd2565b5b60006147a987828801614467565b94505060206147ba87828801614467565b93505060406147cb87828801614467565b92505060606147dc8782880161476c565b91505092959194509250565b600082825260208201905092915050565b7f4f776e61626c653a2063616c6c6572206973206e6f7420746865206f776e6572600082015250565b600061482f6020836147e8565b915061483a826147f9565b602082019050919050565b6000602082019050818103600083015261485e81614822565b9050919050565b61486e816140f3565b811461487957600080fd5b50565b60008151905061488b81614865565b92915050565b61489a81614116565b81146148a557600080fd5b50565b6000815190506148b781614891565b92915050565b6148c681614141565b81146148d157600080fd5b50565b6000815190506148e3816148bd565b92915050565b600080600080600060a0868803121561490557614904613dd2565b5b60006149138882890161487c565b95505060206149248882890161487c565b9450506040614935888289016148a8565b9350506060614946888289016148a8565b9250506080614957888289016148d4565b9150509295509295909350565b6000604082019050614979600083018561409c565b614986602083018461409c565b9392505050565b60006040820190506149a26000830185614426565b6149af602083018461409c565b9392505050565b6149bf816144bc565b81146149ca57600080fd5b50565b6000815190506149dc816149b6565b92915050565b6000602082840312156149f8576149f7613dd2565b5b6000614a06848285016149cd565b91505092915050565b7f4d617267696e426173653a207769746864726177206661696c65640000000000600082015250565b6000614a45601b836147e8565b9150614a5082614a0f565b602082019050919050565b60006020820190508181036000830152614a7481614a38565b9050919050565b7f4e487b7100000000000000000000000000000000000000000000000000000000600052601160045260246000fd5b6000614ab582613ddc565b9150614ac083613ddc565b925082821015614ad357614ad2614a7b565b5b828203905092915050565b600081519050614aed81614755565b92915050565b600060208284031215614b0957614b08613dd2565b5b6000614b1784828501614ade565b91505092915050565b600081519050614b2f81613de6565b92915050565b600060208284031215614b4b57614b4a613dd2565b5b6000614b5984828501614b20565b91505092915050565b7f43616e6e6f7420696e697469616c697a6520696d706c656d656e746174696f6e600082015250565b6000614b986020836147e8565b9150614ba382614b62565b602082019050919050565b60006020820190508181036000830152614bc781614b8b565b9050919050565b7f416c726561647920696e697469616c697a656400000000000000000000000000600082015250565b6000614c046013836147e8565b9150614c0f82614bce565b602082019050919050565b60006020820190508181036000830152614c3381614bf7565b9050919050565b7f4f707352656164793a206f6e6c794f7073000000000000000000000000000000600082015250565b6000614c706011836147e8565b9150614c7b82614c3a565b602082019050919050565b60006020820190508181036000830152614c9f81614c63565b9050919050565b7f4e487b7100000000000000000000000000000000000000000000000000000000600052603260045260246000fd5b600081519050614ce481614450565b92915050565b60008060408385031215614d0157614d00613dd2565b5b6000614d0f85828601614b20565b9250506020614d2085828601614cd5565b9150509250929050565b6000606082019050614d3f600083018661409c565b614d4c602083018561409c565b614d59604083018461409c565b949350505050565b6000606082019050614d766000830186614426565b614d836020830185614426565b614d90604083018461409c565b949350505050565b7f4d617267696e426173653a206465706f736974206661696c6564000000000000600082015250565b6000614dce601a836147e8565b9150614dd982614d98565b602082019050919050565b60006020820190508181036000830152614dfd81614dc1565b9050919050565b600081905092915050565b50565b6000614e1f600083614e04565b9150614e2a82614e0f565b600082019050919050565b6000614e4082614e12565b9150819050919050565b600081519050614e5981613ee3565b92915050565b600060208284031215614e7557614e74613dd2565b5b6000614e8384828501614e4a565b91505092915050565b6000604082019050614ea16000830185614226565b614eae6020830184614226565b9392505050565b60008060408385031215614ecc57614ecb613dd2565b5b6000614eda85828601614b20565b9250506020614eeb858286016149cd565b9150509250929050565b7f4f776e61626c653a206e6577206f776e657220697320746865207a65726f206160008201527f6464726573730000000000000000000000000000000000000000000000000000602082015250565b6000614f516026836147e8565b9150614f5c82614ef5565b604082019050919050565b60006020820190508181036000830152614f8081614f44565b9050919050565b7f4d617267696e426173653a20436f756c64206e6f74206765742046757475726560008201527f73204d61726b6574204d616e6167657200000000000000000000000000000000602082015250565b6000614fe36030836147e8565b9150614fee82614f87565b604082019050919050565b600060408201905061500e6000830184614226565b818103602083015261501f81614fd6565b905092915050565b60006020828403121561503d5761503c613dd2565b5b600061504b84828501614cd5565b91505092915050565b7f73697a6544656c74610000000000000000000000000000000000000000000000815250565b600060208201905061508e60008301615054565b919050565b600061509e82613f0f565b91506150a983613f0f565b9250817f7fffffffffffffffffffffffffffffffffffffffffffffffffffffffffffffff038313600083121516156150e4576150e3614a7b565b5b817f800000000000000000000000000000000000000000000000000000000000000003831260008312161561511c5761511b614a7b565b5b828201905092915050565b600061513282613ddc565b915061513d83613ddc565b9250827fffffffffffffffffffffffffffffffffffffffffffffffffffffffffffffffff0382111561517257615171614a7b565b5b828201905092915050565b600060ff82169050919050565b60006151958261517d565b915060ff82036151a8576151a7614a7b565b5b600182019050919050565b6000819050919050565b60006151d86151d36151ce846151b3565b614270565b613ddc565b9050919050565b6151e8816151bd565b82525050565b6000604082019050615203600083018561409c565b61521060208301846151df565b9392505050565b60007fffffffff0000000000000000000000000000000000000000000000000000000082169050919050565b61524c81615217565b82525050565b600060a0820190506152676000830188614426565b6152746020830187615243565b6152816040830186614426565b81810360608301526152938185614526565b90506152a26080830184614426565b9695505050505050565b600060c0820190506152c1600083018961409c565b6152ce6020830188614226565b6152db604083018761458f565b6152e8606083018661458f565b6152f5608083018561409c565b61530260a0830184614606565b979650505050505050565b600061531882613ddc565b91507fffffffffffffffffffffffffffffffffffffffffffffffffffffffffffffffff820361534a57615349614a7b565b5b600182019050919050565b600061536082613f0f565b91507f8000000000000000000000000000000000000000000000000000000000000000820361539257615391614a7b565b5b816000039050919050565b7f5f7472616e736665723a20455448207472616e73666572206661696c65640000600082015250565b60006153d3601e836147e8565b91506153de8261539d565b602082019050919050565b60006020820190508181036000830152615402816153c6565b9050919050565b7f45786368616e6765720000000000000000000000000000000000000000000000815250565b7f4d617267696e426173653a20436f756c64206e6f74206765742045786368616e60008201527f6765720000000000000000000000000000000000000000000000000000000000602082015250565b600061548b6023836147e8565b91506154968261542f565b604082019050919050565b60006040820190506154b560008301615409565b81810360208301526154c68161547e565b9050919050565b7f4e487b7100000000000000000000000000000000000000000000000000000000600052600160045260246000fd5b7f4e487b7100000000000000000000000000000000000000000000000000000000600052603160045260246000fd5b600061553682613ddc565b915061554183613ddc565b9250817fffffffffffffffffffffffffffffffffffffffffffffffffffffffffffffffff048311821515161561557a57615579614a7b565b5b828202905092915050565b7f4e487b7100000000000000000000000000000000000000000000000000000000600052601260045260246000fd5b60006155bf82613ddc565b91506155ca83613ddc565b9250826155da576155d9615585565b5b828204905092915050565b60006040820190506155fa600083018561458f565b6156076020830184614226565b9392505050565b600061561982613f0f565b915061562483613f0f565b9250827f80000000000000000000000000000000000000000000000000000000000000000182126000841215161561565f5761565e614a7b565b5b827f7fffffffffffffffffffffffffffffffffffffffffffffffffffffffffffffff01821360008412161561569757615696614a7b565b5b828203905092915050565b60006020820190506156b7600083018461458f565b92915050565b60006156c882613f0f565b91506156d383613f0f565b9250827f7fffffffffffffffffffffffffffffffffffffffffffffffffffffffffffffff048211600084136000841316161561571257615711614a7b565b5b817f8000000000000000000000000000000000000000000000000000000000000000058312600084126000841316161561574f5761574e614a7b565b5b827f8000000000000000000000000000000000000000000000000000000000000000058212600084136000841216161561578c5761578b614a7b565b5b827f7fffffffffffffffffffffffffffffffffffffffffffffffffffffffffffffff05821260008412600084121616156157c9576157c8614a7b565b5b828202905092915050565b7f5361666545524332303a204552433230206f7065726174696f6e20646964206e60008201527f6f74207375636365656400000000000000000000000000000000000000000000602082015250565b6000615830602a836147e8565b915061583b826157d4565b604082019050919050565b6000602082019050818103600083015261585f81615823565b9050919050565b7f416464726573733a20696e73756666696369656e742062616c616e636520666f60008201527f722063616c6c0000000000000000000000000000000000000000000000000000602082015250565b60006158c26026836147e8565b91506158cd82615866565b604082019050919050565b600060208201905081810360008301526158f1816158b5565b9050919050565b7f416464726573733a2063616c6c20746f206e6f6e2d636f6e7472616374000000600082015250565b600061592e601d836147e8565b9150615939826158f8565b602082019050919050565b6000602082019050818103600083015261595d81615921565b9050919050565b600061596f826144d7565b6159798185614e04565b93506159898185602086016144f3565b80840191505092915050565b60006159a18284615964565b915081905092915050565b600081519050919050565b60006159c2826159ac565b6159cc81856147e8565b93506159dc8185602086016144f3565b6159e581613e17565b840191505092915050565b60006020820190508181036000830152615a0a81846159b7565b90509291505056fea2646970667358221220cddd4a11e7db674c6dcc60a0453a829718f8fcf4dabf2296822cac69563261a164736f6c634300080d0033",
  "devdoc": {
    "author": "JaredBorders (jaredborders@proton.me), JChiaramonte7 (jeremy@bytecode.llc)",
    "kind": "dev",
    "methods": {
      "constructor": {
        "params": {
          "_addressResolver": ": contract address for synthetix address resolver",
          "_marginAsset": ": token contract address used for account margin",
          "_marginBaseSettings": ": contract address for MarginBase account settings",
          "_ops": ": contract address for gelato ops -- must be payable",
          "_version": ": version of contract"
        }
      },
      "newAccount()": {
        "details": "this contract is the initial owner of cloned MarginBase, but ownership is transferred after successful initialization"
      }
    },
    "title": "Kwenta MarginBase Factory",
    "version": 1
  },
  "userdoc": {
    "kind": "user",
    "methods": {
      "addressResolver()": {
        "notice": "synthetix address resolver"
      },
      "constructor": {
        "notice": "deploy MarginBase implementation to later be cloned"
      },
      "implementation()": {
        "notice": "MarginBase contract acting as user's account"
      },
      "marginAsset()": {
        "notice": "ERC20 token used to interact with markets"
      },
      "marginBaseSettings()": {
        "notice": "settings for MarginBase accounts"
      },
      "newAccount()": {
        "notice": "clone MarginBase (i.e. create new account for user)"
      },
      "ops()": {
        "notice": "gelato ops"
      }
    },
    "notice": "Factory which enables deploying a MarginBase account for any user ",
    "version": 1
  },
  "storageLayout": {
    "storage": [
      {
        "astId": 871,
        "contract": "contracts/MarginAccountFactory.sol:MarginAccountFactory",
        "label": "version",
        "offset": 0,
        "slot": "0",
        "type": "t_string_storage"
      },
      {
        "astId": 885,
        "contract": "contracts/MarginAccountFactory.sol:MarginAccountFactory",
        "label": "marginBaseSettings",
        "offset": 0,
        "slot": "1",
        "type": "t_address"
      }
    ],
    "types": {
      "t_address": {
        "encoding": "inplace",
        "label": "address",
        "numberOfBytes": "20"
      },
      "t_string_storage": {
        "encoding": "bytes",
        "label": "string",
        "numberOfBytes": "32"
      }
    }
  }
}