{
  "address": "0x8d1CB3f153D4646b64A447809e1Ce7714d41C6B4",
  "abi": [
    {
      "inputs": [
        {
          "internalType": "address",
          "name": "_treasury",
          "type": "address"
        },
        {
          "internalType": "uint256",
          "name": "_tradeFee",
          "type": "uint256"
        },
        {
          "internalType": "uint256",
          "name": "_limitOrderFee",
          "type": "uint256"
        },
        {
          "internalType": "uint256",
          "name": "_stopOrderFee",
          "type": "uint256"
        }
      ],
      "stateMutability": "nonpayable",
      "type": "constructor"
    },
    {
      "inputs": [],
      "name": "DuplicateAddress",
      "type": "error"
    },
    {
      "inputs": [],
      "name": "DuplicateFee",
      "type": "error"
    },
    {
      "inputs": [
        {
          "internalType": "uint256",
          "name": "fee",
          "type": "uint256"
        }
      ],
      "name": "InvalidFee",
      "type": "error"
    },
    {
      "inputs": [],
      "name": "ZeroAddress",
      "type": "error"
    },
    {
      "anonymous": false,
      "inputs": [
        {
          "indexed": false,
          "internalType": "uint256",
          "name": "fee",
          "type": "uint256"
        }
      ],
      "name": "LimitOrderFeeChanged",
      "type": "event"
    },
    {
      "anonymous": false,
      "inputs": [
        {
          "indexed": true,
          "internalType": "address",
          "name": "previousOwner",
          "type": "address"
        },
        {
          "indexed": true,
          "internalType": "address",
          "name": "newOwner",
          "type": "address"
        }
      ],
      "name": "OwnershipTransferred",
      "type": "event"
    },
    {
      "anonymous": false,
      "inputs": [
        {
          "indexed": false,
          "internalType": "uint256",
          "name": "fee",
          "type": "uint256"
        }
      ],
      "name": "StopOrderFeeChanged",
      "type": "event"
    },
    {
      "anonymous": false,
      "inputs": [
        {
          "indexed": false,
          "internalType": "uint256",
          "name": "fee",
          "type": "uint256"
        }
      ],
      "name": "TradeFeeChanged",
      "type": "event"
    },
    {
      "anonymous": false,
      "inputs": [
        {
          "indexed": false,
          "internalType": "address",
          "name": "treasury",
          "type": "address"
        }
      ],
      "name": "TreasuryAddressChanged",
      "type": "event"
    },
    {
      "inputs": [],
      "name": "limitOrderFee",
      "outputs": [
        {
          "internalType": "uint256",
          "name": "",
          "type": "uint256"
        }
      ],
      "stateMutability": "view",
      "type": "function"
    },
    {
      "inputs": [],
      "name": "owner",
      "outputs": [
        {
          "internalType": "address",
          "name": "",
          "type": "address"
        }
      ],
      "stateMutability": "view",
      "type": "function"
    },
    {
      "inputs": [],
      "name": "renounceOwnership",
      "outputs": [],
      "stateMutability": "nonpayable",
      "type": "function"
    },
    {
      "inputs": [
        {
          "internalType": "uint256",
          "name": "_fee",
          "type": "uint256"
        }
      ],
      "name": "setLimitOrderFee",
      "outputs": [],
      "stateMutability": "nonpayable",
      "type": "function"
    },
    {
      "inputs": [
        {
          "internalType": "uint256",
          "name": "_fee",
          "type": "uint256"
        }
      ],
      "name": "setStopOrderFee",
      "outputs": [],
      "stateMutability": "nonpayable",
      "type": "function"
    },
    {
      "inputs": [
        {
          "internalType": "uint256",
          "name": "_fee",
          "type": "uint256"
        }
      ],
      "name": "setTradeFee",
      "outputs": [],
      "stateMutability": "nonpayable",
      "type": "function"
    },
    {
      "inputs": [
        {
          "internalType": "address",
          "name": "_treasury",
          "type": "address"
        }
      ],
      "name": "setTreasury",
      "outputs": [],
      "stateMutability": "nonpayable",
      "type": "function"
    },
    {
      "inputs": [],
      "name": "stopOrderFee",
      "outputs": [
        {
          "internalType": "uint256",
          "name": "",
          "type": "uint256"
        }
      ],
      "stateMutability": "view",
      "type": "function"
    },
    {
      "inputs": [],
      "name": "tradeFee",
      "outputs": [
        {
          "internalType": "uint256",
          "name": "",
          "type": "uint256"
        }
      ],
      "stateMutability": "view",
      "type": "function"
    },
    {
      "inputs": [
        {
          "internalType": "address",
          "name": "newOwner",
          "type": "address"
        }
      ],
      "name": "transferOwnership",
      "outputs": [],
      "stateMutability": "nonpayable",
      "type": "function"
    },
    {
      "inputs": [],
      "name": "treasury",
      "outputs": [
        {
          "internalType": "address",
          "name": "",
          "type": "address"
        }
      ],
      "stateMutability": "view",
      "type": "function"
    }
  ],
  "transactionHash": "0xd43722dff2ae42293390dcae08b017166f38e1c200976a822018673b6fb07969",
  "args": [
    "0x6e1768574dC439aE6ffCd2b0A0f218105f2612c6",
    5,
    5,
    5
  ],
  "numDeployments": 2,
  "solcInputHash": "5f15cdebb7877483b0dc572f40aeafb0",
  "bytecode": "0x608060405234801561001057600080fd5b5060405161094038038061094083398101604081905261002f91610153565b61003833610103565b6001600160a01b03841661005f5760405163d92e233d60e01b815260040160405180910390fd5b600180546001600160a01b0319166001600160a01b0386161790556127108311156100a55760405163179c637760e11b8152600481018490526024015b60405180910390fd5b6127108211156100cb5760405163179c637760e11b81526004810183905260240161009c565b6127108111156100f15760405163179c637760e11b81526004810182905260240161009c565b6002929092556003556004555061019e565b600080546001600160a01b038381166001600160a01b0319831681178455604051919092169283917f8be0079c531659141344cd1fd0a4f28419497f9722a3daafe3b4186f6b6457e09190a35050565b6000806000806080858703121561016957600080fd5b84516001600160a01b038116811461018057600080fd5b60208601516040870151606090970151919890975090945092505050565b610793806101ad6000396000f3fe608060405234801561001057600080fd5b50600436106100c95760003560e01c806361d027b311610081578063d45152c81161005b578063d45152c814610172578063f0f442601461017b578063f2fde38b1461018e57600080fd5b806361d027b31461012e578063715018a6146101595780638da5cb5b1461016157600080fd5b806327ca1009116100b257806327ca1009146100ff578063458edd74146101085780635ca22ef11461011b57600080fd5b806310603023146100ce57806324bcdfbd146100e3575b600080fd5b6100e16100dc366004610714565b6101a1565b005b6100ec60025481565b6040519081526020015b60405180910390f35b6100ec60035481565b6100e1610116366004610714565b610284565b6100e1610129366004610714565b61035b565b600154610141906001600160a01b031681565b6040516001600160a01b0390911681526020016100f6565b6100e1610432565b6000546001600160a01b0316610141565b6100ec60045481565b6100e161018936600461072d565b610498565b6100e161019c36600461072d565b6105d5565b6000546001600160a01b031633146102005760405162461bcd60e51b815260206004820181905260248201527f4f776e61626c653a2063616c6c6572206973206e6f7420746865206f776e657260448201526064015b60405180910390fd5b6127108111156102265760405163179c637760e11b8152600481018290526024016101f7565b600254810361024857604051630f7ad2cb60e21b815260040160405180910390fd5b60028190556040518181527ff0e2ab1868f9bae31bda39e0675a42ea0e3b42d3493c88758f0382bf0e9b0496906020015b60405180910390a150565b6000546001600160a01b031633146102de5760405162461bcd60e51b815260206004820181905260248201527f4f776e61626c653a2063616c6c6572206973206e6f7420746865206f776e657260448201526064016101f7565b6127108111156103045760405163179c637760e11b8152600481018290526024016101f7565b600354810361032657604051630f7ad2cb60e21b815260040160405180910390fd5b60038190556040518181527f64ad89be1344628009ffc29a2d5a09191c3ee4f4241b1ce6d52e4e877d9aede090602001610279565b6000546001600160a01b031633146103b55760405162461bcd60e51b815260206004820181905260248201527f4f776e61626c653a2063616c6c6572206973206e6f7420746865206f776e657260448201526064016101f7565b6127108111156103db5760405163179c637760e11b8152600481018290526024016101f7565b60045481036103fd57604051630f7ad2cb60e21b815260040160405180910390fd5b60048190556040518181527f76055c439bea0101a3fad8714507fc4751ac0a669085888c707ead21de0bd4be90602001610279565b6000546001600160a01b0316331461048c5760405162461bcd60e51b815260206004820181905260248201527f4f776e61626c653a2063616c6c6572206973206e6f7420746865206f776e657260448201526064016101f7565b61049660006106b7565b565b6000546001600160a01b031633146104f25760405162461bcd60e51b815260206004820181905260248201527f4f776e61626c653a2063616c6c6572206973206e6f7420746865206f776e657260448201526064016101f7565b6001600160a01b038116610532576040517fd92e233d00000000000000000000000000000000000000000000000000000000815260040160405180910390fd5b6001546001600160a01b039081169082160361057a576040517f0a47c55800000000000000000000000000000000000000000000000000000000815260040160405180910390fd5b6001805473ffffffffffffffffffffffffffffffffffffffff19166001600160a01b0383169081179091556040519081527f9073dfac663173e64aa95665faedae52e2246f9bcdd3890fbfaf6733b46bba1390602001610279565b6000546001600160a01b0316331461062f5760405162461bcd60e51b815260206004820181905260248201527f4f776e61626c653a2063616c6c6572206973206e6f7420746865206f776e657260448201526064016101f7565b6001600160a01b0381166106ab5760405162461bcd60e51b815260206004820152602660248201527f4f776e61626c653a206e6577206f776e657220697320746865207a65726f206160448201527f646472657373000000000000000000000000000000000000000000000000000060648201526084016101f7565b6106b4816106b7565b50565b600080546001600160a01b0383811673ffffffffffffffffffffffffffffffffffffffff19831681178455604051919092169283917f8be0079c531659141344cd1fd0a4f28419497f9722a3daafe3b4186f6b6457e09190a35050565b60006020828403121561072657600080fd5b5035919050565b60006020828403121561073f57600080fd5b81356001600160a01b038116811461075657600080fd5b939250505056fea264697066735822122024922ec4f264baf5e8253a1d11748a093dc22889cd674e8698224612e994215a64736f6c634300080d0033",
  "devdoc": {
    "author": "JaredBorders (jaredborders@proton.me), JChiaramonte7 (jeremy@bytecode.llc)",
    "details": "This contract will require deployment prior to MarginBase account creation",
    "errors": {
      "InvalidFee(uint256)": [
        {
          "params": {
            "fee": ": fee denoted in BPS"
          }
        }
      ]
    },
    "events": {
      "LimitOrderFeeChanged(uint256)": {
        "params": {
          "fee": ": fee denoted in BPS"
        }
      },
      "StopOrderFeeChanged(uint256)": {
        "params": {
          "fee": ": fee denoted in BPS"
        }
      },
      "TradeFeeChanged(uint256)": {
        "params": {
          "fee": ": fee denoted in BPS"
        }
      },
      "TreasuryAddressChanged(address)": {
        "params": {
          "treasury": ": new treasury address"
        }
      }
    },
    "kind": "dev",
    "methods": {
      "constructor": {
        "params": {
          "_limitOrderFee": ": fee denoted in BPS",
          "_stopOrderFee": ": fee denoted in BPS",
          "_tradeFee": ": fee denoted in BPS",
          "_treasury": ": Kwenta's Treasury Address"
        }
      },
      "owner()": {
        "details": "Returns the address of the current owner."
      },
      "renounceOwnership()": {
        "details": "Leaves the contract without owner. It will not be possible to call `onlyOwner` functions anymore. Can only be called by the current owner. NOTE: Renouncing ownership will leave the contract without an owner, thereby removing any functionality that is only available to the owner."
      },
      "setLimitOrderFee(uint256)": {
        "params": {
          "_fee": ": fee denoted in BPS"
        }
      },
      "setStopOrderFee(uint256)": {
        "params": {
          "_fee": ": fee denoted in BPS"
        }
      },
      "setTradeFee(uint256)": {
        "params": {
          "_fee": ": fee denoted in BPS"
        }
      },
      "setTreasury(address)": {
        "params": {
          "_treasury": ": new treasury address"
        }
      },
      "transferOwnership(address)": {
        "details": "Transfers ownership of the contract to a new account (`newOwner`). Can only be called by the current owner."
      }
    },
    "stateVariables": {
      "limitOrderFee": {
        "details": "fee imposed on limit orders"
      },
      "stopOrderFee": {
        "details": "fee imposed on stop losses"
      },
      "tradeFee": {
        "details": "fee imposed on all tradestrades: defined as changes made to IMarginBaseTypes.ActiveMarketPosition.size"
      }
    },
    "title": "Kwenta Settings for MarginBase Accounts",
    "version": 1
  },
  "userdoc": {
    "errors": {
      "DuplicateAddress()": [
        {
          "notice": "new address cannot be the same as the old address"
        }
      ],
      "DuplicateFee()": [
        {
          "notice": "new fee cannot be the same as the old fee"
        }
      ],
      "InvalidFee(uint256)": [
        {
          "notice": "invalid fee (fee > MAX_BPS)"
        }
      ],
      "ZeroAddress()": [
        {
          "notice": "zero address cannot be used"
        }
      ]
    },
    "events": {
      "LimitOrderFeeChanged(uint256)": {
        "notice": "emitted after a successful limit order fee change"
      },
      "StopOrderFeeChanged(uint256)": {
        "notice": "emitted after a successful stop loss fee change"
      },
      "TradeFeeChanged(uint256)": {
        "notice": "emitted after a successful trade fee change"
      },
      "TreasuryAddressChanged(address)": {
        "notice": "emitted after changing treasury address"
      }
    },
    "kind": "user",
    "methods": {
      "constructor": {
        "notice": "set initial margin base account fees"
      },
      "limitOrderFee()": {
        "notice": "denoted in Basis points (BPS) (One basis point is equal to 1/100th of 1%)"
      },
      "setLimitOrderFee(uint256)": {
        "notice": "set new limit order fee"
      },
      "setStopOrderFee(uint256)": {
        "notice": "set new stop loss fee"
      },
      "setTradeFee(uint256)": {
        "notice": "set new trade fee"
      },
      "setTreasury(address)": {
        "notice": "set new treasury address"
      },
      "stopOrderFee()": {
        "notice": "denoted in Basis points (BPS) (One basis point is equal to 1/100th of 1%)"
      },
      "tradeFee()": {
        "notice": "denoted in Basis points (BPS) (One basis point is equal to 1/100th of 1%)"
      }
    },
    "notice": "Contract (owned by the deployer) for controlling the settings of MarginBase account(s)",
    "version": 1
  },
  "storageLayout": {
    "storage": [
      {
        "astId": 7,
        "contract": "contracts/MarginBaseSettings.sol:MarginBaseSettings",
        "label": "_owner",
        "offset": 0,
        "slot": "0",
        "type": "t_address"
      },
      {
        "astId": 2718,
        "contract": "contracts/MarginBaseSettings.sol:MarginBaseSettings",
        "label": "treasury",
        "offset": 0,
        "slot": "1",
        "type": "t_address"
      },
      {
        "astId": 2721,
        "contract": "contracts/MarginBaseSettings.sol:MarginBaseSettings",
        "label": "tradeFee",
        "offset": 0,
        "slot": "2",
        "type": "t_uint256"
      },
      {
        "astId": 2724,
        "contract": "contracts/MarginBaseSettings.sol:MarginBaseSettings",
        "label": "limitOrderFee",
        "offset": 0,
        "slot": "3",
        "type": "t_uint256"
      },
      {
        "astId": 2727,
        "contract": "contracts/MarginBaseSettings.sol:MarginBaseSettings",
        "label": "stopOrderFee",
        "offset": 0,
        "slot": "4",
        "type": "t_uint256"
      }
    ],
    "types": {
      "t_address": {
        "encoding": "inplace",
        "label": "address",
        "numberOfBytes": "20"
      },
      "t_uint256": {
        "encoding": "inplace",
        "label": "uint256",
        "numberOfBytes": "32"
      }
    }
  }
}