{
  "address": "0xB16A014734cF9d43b90D3db5e75E31B93E0C9cf1",
  "abi": [
    {
      "inputs": [
        {
          "internalType": "string",
          "name": "_version",
          "type": "string"
        },
        {
          "internalType": "address",
          "name": "_marginAsset",
          "type": "address"
        },
        {
          "internalType": "address",
          "name": "_addressResolver",
          "type": "address"
        },
        {
          "internalType": "address",
          "name": "_marginBaseSettings",
          "type": "address"
        },
        {
          "internalType": "address payable",
          "name": "_ops",
          "type": "address"
        }
      ],
      "stateMutability": "nonpayable",
      "type": "constructor"
    },
    {
      "anonymous": false,
      "inputs": [
        {
          "indexed": true,
          "internalType": "address",
          "name": "owner",
          "type": "address"
        },
        {
          "indexed": false,
          "internalType": "address",
          "name": "account",
          "type": "address"
        }
      ],
      "name": "NewAccount",
      "type": "event"
    },
    {
      "inputs": [],
      "name": "addressResolver",
      "outputs": [
        {
          "internalType": "address",
          "name": "",
          "type": "address"
        }
      ],
      "stateMutability": "view",
      "type": "function"
    },
    {
      "inputs": [],
      "name": "implementation",
      "outputs": [
        {
          "internalType": "contract MarginBase",
          "name": "",
          "type": "address"
        }
      ],
      "stateMutability": "view",
      "type": "function"
    },
    {
      "inputs": [],
      "name": "marginAsset",
      "outputs": [
        {
          "internalType": "contract IERC20",
          "name": "",
          "type": "address"
        }
      ],
      "stateMutability": "view",
      "type": "function"
    },
    {
      "inputs": [],
      "name": "marginBaseSettings",
      "outputs": [
        {
          "internalType": "address",
          "name": "",
          "type": "address"
        }
      ],
      "stateMutability": "view",
      "type": "function"
    },
    {
      "inputs": [],
      "name": "newAccount",
      "outputs": [
        {
          "internalType": "address",
          "name": "",
          "type": "address"
        }
      ],
      "stateMutability": "nonpayable",
      "type": "function"
    },
    {
      "inputs": [],
      "name": "ops",
      "outputs": [
        {
          "internalType": "address payable",
          "name": "",
          "type": "address"
        }
      ],
      "stateMutability": "view",
      "type": "function"
    },
    {
      "inputs": [],
      "name": "version",
      "outputs": [
        {
          "internalType": "string",
          "name": "",
          "type": "string"
        }
      ],
      "stateMutability": "view",
      "type": "function"
    }
  ],
  "transactionHash": "0xc9dde6523dd7139f52fd25a61b3453ab2cae97c0eaba0a00ff182e90b5d39e34",
  "args": [
    "1.0.0",
    "0xeBaEAAD9236615542844adC5c149F86C36aD1136",
    "0x9Fc84992dF5496797784374B810E04238728743d",
    "0x6A5bFf4b099B03e3988f36bB253EcCd70595a9F5",
    "0x255F82563b5973264e89526345EcEa766DB3baB2"
  ],
  "numDeployments": 1,
  "solcInputHash": "5dc0dee341db4688de81bab703a154c3",
  "bytecode": "0x6101006040523480156200001257600080fd5b506040516200666d3803806200666d83398181016040528101906200003891906200049d565b84600090805190602001906200005092919062000198565b506040516200005f9062000229565b604051809103906000f0801580156200007c573d6000803e3d6000fd5b5073ffffffffffffffffffffffffffffffffffffffff1660808173ffffffffffffffffffffffffffffffffffffffff16815250508373ffffffffffffffffffffffffffffffffffffffff1660a08173ffffffffffffffffffffffffffffffffffffffff16815250508273ffffffffffffffffffffffffffffffffffffffff1660c08173ffffffffffffffffffffffffffffffffffffffff168152505081600160006101000a81548173ffffffffffffffffffffffffffffffffffffffff021916908373ffffffffffffffffffffffffffffffffffffffff1602179055508073ffffffffffffffffffffffffffffffffffffffff1660e08173ffffffffffffffffffffffffffffffffffffffff16815250505050505050620005a8565b828054620001a69062000573565b90600052602060002090601f016020900481019282620001ca576000855562000216565b82601f10620001e557805160ff191683800117855562000216565b8280016001018555821562000216579182015b8281111562000215578251825591602001919060010190620001f8565b5b50905062000225919062000237565b5090565b6156bd8062000fb083390190565b5b808211156200025257600081600090555060010162000238565b5090565b6000604051905090565b600080fd5b600080fd5b600080fd5b600080fd5b6000601f19601f8301169050919050565b7f4e487b7100000000000000000000000000000000000000000000000000000000600052604160045260246000fd5b620002bf8262000274565b810181811067ffffffffffffffff82111715620002e157620002e062000285565b5b80604052505050565b6000620002f662000256565b9050620003048282620002b4565b919050565b600067ffffffffffffffff82111562000327576200032662000285565b5b620003328262000274565b9050602081019050919050565b60005b838110156200035f57808201518184015260208101905062000342565b838111156200036f576000848401525b50505050565b60006200038c620003868462000309565b620002ea565b905082815260208101848484011115620003ab57620003aa6200026f565b5b620003b88482856200033f565b509392505050565b600082601f830112620003d857620003d76200026a565b5b8151620003ea84826020860162000375565b91505092915050565b600073ffffffffffffffffffffffffffffffffffffffff82169050919050565b60006200042082620003f3565b9050919050565b620004328162000413565b81146200043e57600080fd5b50565b600081519050620004528162000427565b92915050565b60006200046582620003f3565b9050919050565b620004778162000458565b81146200048357600080fd5b50565b60008151905062000497816200046c565b92915050565b600080600080600060a08688031215620004bc57620004bb62000260565b5b600086015167ffffffffffffffff811115620004dd57620004dc62000265565b5b620004eb88828901620003c0565b9550506020620004fe8882890162000441565b9450506040620005118882890162000441565b9350506060620005248882890162000441565b9250506080620005378882890162000486565b9150509295509295909350565b7f4e487b7100000000000000000000000000000000000000000000000000000000600052602260045260246000fd5b600060028204905060018216806200058c57607f821691505b602082108103620005a257620005a162000544565b5b50919050565b60805160a05160c05160e0516109b2620005fe6000396000818161035b015261048d015260008181610156015261031701526000818161025201526102f601526000818161022e015261027c01526109b26000f3fe608060405234801561001057600080fd5b506004361061007d5760003560e01c80635c60da1b1161005b5780635c60da1b146100dc57806382689cae146100fa578063bf335e6214610118578063e70abe92146101365761007d565b806305a2ee2a1461008257806334b366f9146100a057806354fd4d50146100be575b600080fd5b61008a610154565b60405161009791906105df565b60405180910390f35b6100a8610178565b6040516100b591906105df565b60405180910390f35b6100c661019e565b6040516100d39190610693565b60405180910390f35b6100e461022c565b6040516100f19190610714565b60405180910390f35b610102610250565b60405161010f9190610750565b60405180910390f35b610120610274565b60405161012d91906105df565b60405180910390f35b61013e61048b565b60405161014b919061078c565b60405180910390f35b7f000000000000000000000000000000000000000000000000000000000000000081565b600160009054906101000a900473ffffffffffffffffffffffffffffffffffffffff1681565b600080546101ab906107d6565b80601f01602080910402602001604051908101604052809291908181526020018280546101d7906107d6565b80156102245780601f106101f957610100808354040283529160200191610224565b820191906000526020600020905b81548152906001019060200180831161020757829003601f168201915b505050505081565b7f000000000000000000000000000000000000000000000000000000000000000081565b7f000000000000000000000000000000000000000000000000000000000000000081565b6000806102d67f00000000000000000000000000000000000000000000000000000000000000006040518060400160405280601081526020017f4372656174696f6e206661696c757265000000000000000000000000000000008152506104af565b90508073ffffffffffffffffffffffffffffffffffffffff1663f8c8765e7f00000000000000000000000000000000000000000000000000000000000000007f0000000000000000000000000000000000000000000000000000000000000000600160009054906101000a900473ffffffffffffffffffffffffffffffffffffffff167f00000000000000000000000000000000000000000000000000000000000000006040518563ffffffff1660e01b81526004016103999493929190610807565b600060405180830381600087803b1580156103b357600080fd5b505af11580156103c7573d6000803e3d6000fd5b505050508073ffffffffffffffffffffffffffffffffffffffff1663f2fde38b336040518263ffffffff1660e01b815260040161040491906105df565b600060405180830381600087803b15801561041e57600080fd5b505af1158015610432573d6000803e3d6000fd5b505050503373ffffffffffffffffffffffffffffffffffffffff167f14cb25cca821184a88389fa7823ef6a4cd65897a89cbdcf5169542b8d790478b8260405161047c91906105df565b60405180910390a28091505090565b7f000000000000000000000000000000000000000000000000000000000000000081565b6000806104bb84610543565b90506037602082016000f09150600073ffffffffffffffffffffffffffffffffffffffff168273ffffffffffffffffffffffffffffffffffffffff161415839061053b576040517f08c379a00000000000000000000000000000000000000000000000000000000081526004016105329190610693565b60405180910390fd5b505092915050565b6060693d602d80600a3d3981f360b01b69363d3d373d3d3d363d7360b01b836e5af43d82803e903d91602b57fd5bf360881b604051602001610588949392919061092e565b6040516020818303038152906040529050919050565b600073ffffffffffffffffffffffffffffffffffffffff82169050919050565b60006105c98261059e565b9050919050565b6105d9816105be565b82525050565b60006020820190506105f460008301846105d0565b92915050565b600081519050919050565b600082825260208201905092915050565b60005b83811015610634578082015181840152602081019050610619565b83811115610643576000848401525b50505050565b6000601f19601f8301169050919050565b6000610665826105fa565b61066f8185610605565b935061067f818560208601610616565b61068881610649565b840191505092915050565b600060208201905081810360008301526106ad818461065a565b905092915050565b6000819050919050565b60006106da6106d56106d08461059e565b6106b5565b61059e565b9050919050565b60006106ec826106bf565b9050919050565b60006106fe826106e1565b9050919050565b61070e816106f3565b82525050565b60006020820190506107296000830184610705565b92915050565b600061073a826106e1565b9050919050565b61074a8161072f565b82525050565b60006020820190506107656000830184610741565b92915050565b60006107768261059e565b9050919050565b6107868161076b565b82525050565b60006020820190506107a1600083018461077d565b92915050565b7f4e487b7100000000000000000000000000000000000000000000000000000000600052602260045260246000fd5b600060028204905060018216806107ee57607f821691505b602082108103610801576108006107a7565b5b50919050565b600060808201905061081c60008301876105d0565b61082960208301866105d0565b61083660408301856105d0565b610843606083018461077d565b95945050505050565b60007fffffffffffffffffffff0000000000000000000000000000000000000000000082169050919050565b6000819050919050565b61089361088e8261084c565b610878565b82525050565b60008160601b9050919050565b60006108b182610899565b9050919050565b60006108c3826108a6565b9050919050565b6108db6108d6826105be565b6108b8565b82525050565b60007fffffffffffffffffffffffffffffff000000000000000000000000000000000082169050919050565b6000819050919050565b610928610923826108e1565b61090d565b82525050565b600061093a8287610882565b600a8201915061094a8286610882565b600a8201915061095a82856108ca565b60148201915061096a8284610917565b600f820191508190509594505050505056fea2646970667358221220a7fb7899dca3d37369f3d1e9d3e691bcb6a0beff80f3eff95d839e5ca11daacb64736f6c634300080d003360806040523480156200001157600080fd5b5062000032620000266200005360201b60201c565b6200005b60201b60201c565b6001600060146101000a81548160ff0219169083151502179055506200011f565b600033905090565b60008060009054906101000a900473ffffffffffffffffffffffffffffffffffffffff169050816000806101000a81548173ffffffffffffffffffffffffffffffffffffffff021916908373ffffffffffffffffffffffffffffffffffffffff1602179055508173ffffffffffffffffffffffffffffffffffffffff168173ffffffffffffffffffffffffffffffffffffffff167f8be0079c531659141344cd1fd0a4f28419497f9722a3daafe3b4186f6b6457e060405160405180910390a35050565b61558e806200012f6000396000f3fe6080604052600436106101c25760003560e01c80638322fff2116100f7578063ac95f50c11610095578063e70abe9211610064578063e70abe921461062b578063ea1d5ae614610656578063f2fde38b14610694578063f8c8765e146106bd576101c2565b8063ac95f50c1461056c578063b6b55f25146105a9578063c311d049146105d2578063d3c7dfa9146105fb576101c2565b806394e05b2c116100d157806394e05b2c1461049857806394f61134146104d6578063a4890337146104ff578063a85c38ef1461052a576101c2565b80638322fff2146104195780638cd4426d146104445780638da5cb5b1461046d576101c2565b8063514fcac71161016457806362ba056f1161013e57806362ba056f14610395578063715018a6146103c05780638129fc1c146103d757806382689cae146103ee576101c2565b8063514fcac714610316578063573ea5751461033f578063613838051461036a576101c2565b80632e1a7d4d116101a05780632e1a7d4d1461025c578063301249d914610285578063325314e5146102ae57806334b366f9146102eb576101c2565b80630c5ad571146101c7578063163de5e5146101f05780631928b3cb1461021b575b600080fd5b3480156101d357600080fd5b506101ee60048036038101906101e99190613d0e565b6106e6565b005b3480156101fc57600080fd5b50610205610778565b6040516102129190613d79565b60405180910390f35b34801561022757600080fd5b50610242600480360381019061023d9190613d94565b61077e565b604051610253959493929190613e2b565b60405180910390f35b34801561026857600080fd5b50610283600480360381019061027e9190613e7e565b610825565b005b34801561029157600080fd5b506102ac60048036038101906102a79190613eab565b610a96565b005b3480156102ba57600080fd5b506102d560048036038101906102d09190613e7e565b610b1e565b6040516102e29190613f03565b60405180910390f35b3480156102f757600080fd5b50610300610b42565b60405161030d9190613f9d565b60405180910390f35b34801561032257600080fd5b5061033d60048036038101906103389190613e7e565b610b68565b005b34801561034b57600080fd5b50610354610ddb565b6040516103619190613fd9565b60405180910390f35b34801561037657600080fd5b5061037f610e73565b60405161038c9190613d79565b60405180910390f35b3480156103a157600080fd5b506103aa610f23565b6040516103b79190613d79565b60405180910390f35b3480156103cc57600080fd5b506103d5610f30565b005b3480156103e357600080fd5b506103ec610fb8565b005b3480156103fa57600080fd5b50610403611075565b6040516104109190614015565b60405180910390f35b34801561042557600080fd5b5061042e61109b565b60405161043b9190614051565b60405180910390f35b34801561045057600080fd5b5061046b60048036038101906104669190614098565b6110b3565b005b34801561047957600080fd5b50610482611279565b60405161048f9190614051565b60405180910390f35b3480156104a457600080fd5b506104bf60048036038101906104ba9190613e7e565b6112a2565b6040516104cd92919061417b565b60405180910390f35b3480156104e257600080fd5b506104fd60048036038101906104f89190613e7e565b611331565b005b34801561050b57600080fd5b506105146116c0565b6040516105219190613d79565b60405180910390f35b34801561053657600080fd5b50610551600480360381019061054c9190613e7e565b6116c6565b60405161056396959493929190614231565b60405180910390f35b34801561057857600080fd5b50610593600480360381019061058e9190613d94565b61170f565b6040516105a09190613d79565b60405180910390f35b3480156105b557600080fd5b506105d060048036038101906105cb9190613e7e565b611727565b005b3480156105de57600080fd5b506105f960048036038101906105f49190613e7e565b611945565b005b610615600480360381019061061091906142b7565b611a6f565b6040516106229190613d79565b60405180910390f35b34801561063757600080fd5b50610640611eb7565b60405161064d9190614051565b60405180910390f35b34801561066257600080fd5b5061067d60048036038101906106789190613e7e565b611edd565b60405161068b929190614332565b60405180910390f35b3480156106a057600080fd5b506106bb60048036038101906106b6919061435b565b612002565b005b3480156106c957600080fd5b506106e460048036038101906106df91906143b4565b6120f9565b005b6106ee612404565b73ffffffffffffffffffffffffffffffffffffffff1661070c611279565b73ffffffffffffffffffffffffffffffffffffffff1614610762576040517f08c379a000000000000000000000000000000000000000000000000000000000815260040161075990614478565b60405180910390fd5b61076b82611727565b6107748161240c565b5050565b600b5481565b600080600080600061078f86612b0c565b73ffffffffffffffffffffffffffffffffffffffff166355f57510306040518263ffffffff1660e01b81526004016107c79190614051565b60a060405180830381865afa1580156107e4573d6000803e3d6000fd5b505050506040513d601f19601f82011682018060405250810190610808919061451c565b809550819650829750839850849950505050505091939590929450565b807f5f616d6f756e74000000000000000000000000000000000000000000000000006000820361088c57806040517f227a7b4d0000000000000000000000000000000000000000000000000000000081526004016108839190613f03565b60405180910390fd5b610894612404565b73ffffffffffffffffffffffffffffffffffffffff166108b2611279565b73ffffffffffffffffffffffffffffffffffffffff1614610908576040517f08c379a00000000000000000000000000000000000000000000000000000000081526004016108ff90614478565b60405180910390fd5b610910610e73565b83111561095d5761091f610e73565b836040517f3cb0273a000000000000000000000000000000000000000000000000000000008152600401610954929190614597565b60405180910390fd5b600560009054906101000a900473ffffffffffffffffffffffffffffffffffffffff1673ffffffffffffffffffffffffffffffffffffffff1663a9059cbb6109a3611279565b856040518363ffffffff1660e01b81526004016109c19291906145c0565b6020604051808303816000875af11580156109e0573d6000803e3d6000fd5b505050506040513d601f19601f82011682018060405250810190610a049190614615565b610a43576040517f08c379a0000000000000000000000000000000000000000000000000000000008152600401610a3a9061468e565b60405180910390fd5b3373ffffffffffffffffffffffffffffffffffffffff167f884edad9ce6fa2440d8a54cc123490eb96d2768479d49ff9c7366125a942436484604051610a899190613d79565b60405180910390a2505050565b610a9e612404565b73ffffffffffffffffffffffffffffffffffffffff16610abc611279565b73ffffffffffffffffffffffffffffffffffffffff1614610b12576040517f08c379a0000000000000000000000000000000000000000000000000000000008152600401610b0990614478565b60405180910390fd5b610b1b8161240c565b50565b60088181548110610b2e57600080fd5b906000526020600020016000915090505481565b600460009054906101000a900473ffffffffffffffffffffffffffffffffffffffff1681565b610b70612404565b73ffffffffffffffffffffffffffffffffffffffff16610b8e611279565b73ffffffffffffffffffffffffffffffffffffffff1614610be4576040517f08c379a0000000000000000000000000000000000000000000000000000000008152600401610bdb90614478565b60405180910390fd5b6000600a60008381526020019081526020016000206040518060c001604052908160008201548152602001600182015481526020016002820154815260200160038201548152602001600482015481526020016005820160009054906101000a900460ff166001811115610c5b57610c5a6141ba565b5b6001811115610c6d57610c6c6141ba565b5b815250509050600081602001511315610ca657610c8d8160200151612bb1565b60066000828254610c9e91906146dd565b925050819055505b600160009054906101000a900473ffffffffffffffffffffffffffffffffffffffff1673ffffffffffffffffffffffffffffffffffffffff1663ee8ca3b582608001516040518263ffffffff1660e01b8152600401610d059190613f03565b600060405180830381600087803b158015610d1f57600080fd5b505af1158015610d33573d6000803e3d6000fd5b50505050600a600083815260200190815260200160002060008082016000905560018201600090556002820160009055600382016000905560048201600090556005820160006101000a81549060ff021916905550503073ffffffffffffffffffffffffffffffffffffffff167fdd003742fb214507783ce004fe55f5ac14f89c6de4a7cd7487e47eb091c6226583604051610dcf9190613d79565b60405180910390a25050565b6000600160009054906101000a900473ffffffffffffffffffffffffffffffffffffffff1673ffffffffffffffffffffffffffffffffffffffff1663573ea5756040518163ffffffff1660e01b8152600401602060405180830381865afa158015610e4a573d6000803e3d6000fd5b505050506040513d601f19601f82011682018060405250810190610e6e9190614726565b905090565b6000600654600560009054906101000a900473ffffffffffffffffffffffffffffffffffffffff1673ffffffffffffffffffffffffffffffffffffffff166370a08231306040518263ffffffff1660e01b8152600401610ed39190614051565b602060405180830381865afa158015610ef0573d6000803e3d6000fd5b505050506040513d601f19601f82011682018060405250810190610f149190614768565b610f1e91906146dd565b905090565b6000600880549050905090565b610f38612404565b73ffffffffffffffffffffffffffffffffffffffff16610f56611279565b73ffffffffffffffffffffffffffffffffffffffff1614610fac576040517f08c379a0000000000000000000000000000000000000000000000000000000008152600401610fa390614478565b60405180910390fd5b610fb66000612bd2565b565b600060149054906101000a900460ff1615611008576040517f08c379a0000000000000000000000000000000000000000000000000000000008152600401610fff906147e1565b60405180910390fd5b600060159054906101000a900460ff1615611058576040517f08c379a000000000000000000000000000000000000000000000000000000000815260040161104f9061484d565b60405180910390fd5b6001600060156101000a81548160ff021916908315150217905550565b600560009054906101000a900473ffffffffffffffffffffffffffffffffffffffff1681565b73eeeeeeeeeeeeeeeeeeeeeeeeeeeeeeeeeeeeeeee81565b6110bb612404565b73ffffffffffffffffffffffffffffffffffffffff166110d9611279565b73ffffffffffffffffffffffffffffffffffffffff161461112f576040517f08c379a000000000000000000000000000000000000000000000000000000000815260040161112690614478565b60405180910390fd5b600560009054906101000a900473ffffffffffffffffffffffffffffffffffffffff1673ffffffffffffffffffffffffffffffffffffffff168273ffffffffffffffffffffffffffffffffffffffff16036111b6576040517f6b18909700000000000000000000000000000000000000000000000000000000815260040160405180910390fd5b8173ffffffffffffffffffffffffffffffffffffffff1663a9059cbb6111da611279565b836040518363ffffffff1660e01b81526004016111f89291906145c0565b6020604051808303816000875af1158015611217573d6000803e3d6000fd5b505050506040513d601f19601f8201168201806040525081019061123b9190614615565b507f8aec0ce3dadffacf4b7a963e0fed1ff2e6151b4c95d4a65acafa9d1299630402828260405161126d9291906145c0565b60405180910390a15050565b60008060009054906101000a900473ffffffffffffffffffffffffffffffffffffffff16905090565b600060606112af83611edd565b50809250506394f6113460e01b836040516024016112cd9190613d79565b604051602081830303815290604052907bffffffffffffffffffffffffffffffffffffffffffffffffffffffff19166020820180517bffffffffffffffffffffffffffffffffffffffffffffffffffffffff83818316178352505050509050915091565b600160009054906101000a900473ffffffffffffffffffffffffffffffffffffffff1673ffffffffffffffffffffffffffffffffffffffff163373ffffffffffffffffffffffffffffffffffffffff16146113c1576040517f08c379a00000000000000000000000000000000000000000000000000000000081526004016113b8906148b9565b60405180910390fd5b6000806113cd83611edd565b9150915081611408576040517f2e0c0f7100000000000000000000000000000000000000000000000000000000815260040160405180910390fd5b6000600a60008581526020019081526020016000206040518060c001604052908160008201548152602001600182015481526020016002820154815260200160038201548152602001600482015481526020016005820160009054906101000a900460ff16600181111561147f5761147e6141ba565b5b6001811115611491576114906141ba565b5b8152505090506000816020015113156114ca576114b18160200151612bb1565b600660008282546114c291906146dd565b925050819055505b6000600167ffffffffffffffff8111156114e7576114e6613af6565b5b60405190808252806020026020018201604052801561152057816020015b61150d613a72565b8152602001906001900390816115055790505b5090506040518060600160405280836000015181526020018360200151815260200183604001518152508160008151811061155e5761155d6148d9565b5b6020026020010181905250600a600086815260200190815260200160002060008082016000905560018201600090556002820160009055600382016000905560048201600090556005820160006101000a81549060ff021916905550506115c48161240c565b600080600160009054906101000a900473ffffffffffffffffffffffffffffffffffffffff1673ffffffffffffffffffffffffffffffffffffffff1663b810c6366040518163ffffffff1660e01b81526004016040805180830381865afa158015611633573d6000803e3d6000fd5b505050506040513d601f19601f82011682018060405250810190611657919061491d565b915091506116658282612c96565b3073ffffffffffffffffffffffffffffffffffffffff167fc3813414294c4ab73f9881fe38ec4294109bb7bfce21e6909e91fab10d61aa4f8887856040516116af9392919061495d565b60405180910390a250505050505050565b60065481565b600a6020528060005260406000206000915090508060000154908060010154908060020154908060030154908060040154908060050160009054906101000a900460ff16905086565b60096020528060005260406000206000915090505481565b807f5f616d6f756e74000000000000000000000000000000000000000000000000006000820361178e57806040517f227a7b4d0000000000000000000000000000000000000000000000000000000081526004016117859190613f03565b60405180910390fd5b611796612404565b73ffffffffffffffffffffffffffffffffffffffff166117b4611279565b73ffffffffffffffffffffffffffffffffffffffff161461180a576040517f08c379a000000000000000000000000000000000000000000000000000000000815260040161180190614478565b60405180910390fd5b600560009054906101000a900473ffffffffffffffffffffffffffffffffffffffff1673ffffffffffffffffffffffffffffffffffffffff166323b872dd611850611279565b30866040518463ffffffff1660e01b815260040161187093929190614994565b6020604051808303816000875af115801561188f573d6000803e3d6000fd5b505050506040513d601f19601f820116820180604052508101906118b39190614615565b6118f2576040517f08c379a00000000000000000000000000000000000000000000000000000000081526004016118e990614a17565b60405180910390fd5b3373ffffffffffffffffffffffffffffffffffffffff167fe1fffcc4923d04b559f4d29a8bfc6cda04eb5b0d3c460751c2402c5c5cc9109c846040516119389190613d79565b60405180910390a2505050565b61194d612404565b73ffffffffffffffffffffffffffffffffffffffff1661196b611279565b73ffffffffffffffffffffffffffffffffffffffff16146119c1576040517f08c379a00000000000000000000000000000000000000000000000000000000081526004016119b890614478565b60405180910390fd5b60006119cb611279565b73ffffffffffffffffffffffffffffffffffffffff16826040516119ee90614a68565b60006040518083038185875af1925050503d8060008114611a2b576040519150601f19603f3d011682016040523d82523d6000602084013e611a30565b606091505b5050905080611a6b576040517f0ca79afd00000000000000000000000000000000000000000000000000000000815260040160405180910390fd5b5050565b6000611a7a84612bb1565b7f5f73697a6544656c74610000000000000000000000000000000000000000000060008203611ae057806040517f227a7b4d000000000000000000000000000000000000000000000000000000008152600401611ad79190613f03565b60405180910390fd5b611ae8612404565b73ffffffffffffffffffffffffffffffffffffffff16611b06611279565b73ffffffffffffffffffffffffffffffffffffffff1614611b5c576040517f08c379a0000000000000000000000000000000000000000000000000000000008152600401611b5390614478565b60405180910390fd5b67016345785d8a0000471015611bb3574767016345785d8a00006040517f5c4a8f55000000000000000000000000000000000000000000000000000000008152600401611baa929190614ab8565b60405180910390fd5b6000871315611c4357611bc4610e73565b611bcd88612bb1565b1115611c2157611bdb610e73565b611be488612bb1565b6040517f3cb0273a000000000000000000000000000000000000000000000000000000008152600401611c18929190614597565b60405180910390fd5b611c2a87612bb1565b60066000828254611c3b9190614ae1565b925050819055505b6000600160009054906101000a900473ffffffffffffffffffffffffffffffffffffffff1673ffffffffffffffffffffffffffffffffffffffff1663b9f45adb306394f6113460e01b306394e05b2c60e01b600b54604051602401611ca89190613d79565b604051602081830303815290604052907bffffffffffffffffffffffffffffffffffffffffffffffffffffffff19166020820180517bffffffffffffffffffffffffffffffffffffffffffffffffffffffff838183161783525050505073eeeeeeeeeeeeeeeeeeeeeeeeeeeeeeeeeeeeeeee6040518663ffffffff1660e01b8152600401611d3a959493929190614b72565b6020604051808303816000875af1158015611d59573d6000803e3d6000fd5b505050506040513d601f19601f82011682018060405250810190611d7d9190614be1565b90506040518060c001604052808a8152602001898152602001888152602001878152602001828152602001866001811115611dbb57611dba6141ba565b5b815250600a6000600b548152602001908152602001600020600082015181600001556020820151816001015560408201518160020155606082015181600301556080820151816004015560a08201518160050160006101000a81548160ff02191690836001811115611e3057611e2f6141ba565b5b02179055509050503073ffffffffffffffffffffffffffffffffffffffff167f8f08ab4b600854bacfbaba51c4409d4f9ba7a0b78c3ad7e93d43755e371f98e3600b548b8b8b8b8b604051611e8a96959493929190614c0e565b60405180910390a2600b6000815480929190611ea590614c6f565b91905055935050505095945050505050565b600160009054906101000a900473ffffffffffffffffffffffffffffffffffffffff1681565b6000806000600a60008581526020019081526020016000206040518060c001604052908160008201548152602001600182015481526020016002820154815260200160038201548152602001600482015481526020016005820160009054906101000a900460ff166001811115611f5757611f566141ba565b5b6001811115611f6957611f686141ba565b5b81525050905060006001811115611f8357611f826141ba565b5b8160a001516001811115611f9a57611f996141ba565b5b03611fb257611fa881612dad565b9250925050611ffd565b600180811115611fc557611fc46141ba565b5b8160a001516001811115611fdc57611fdb6141ba565b5b03611ff457611fea81612e17565b9250925050611ffd565b60008092509250505b915091565b61200a612404565b73ffffffffffffffffffffffffffffffffffffffff16612028611279565b73ffffffffffffffffffffffffffffffffffffffff161461207e576040517f08c379a000000000000000000000000000000000000000000000000000000000815260040161207590614478565b60405180910390fd5b600073ffffffffffffffffffffffffffffffffffffffff168173ffffffffffffffffffffffffffffffffffffffff16036120ed576040517f08c379a00000000000000000000000000000000000000000000000000000000081526004016120e490614d29565b60405180910390fd5b6120f681612bd2565b50565b600060149054906101000a900460ff1615612149576040517f08c379a0000000000000000000000000000000000000000000000000000000008152600401612140906147e1565b60405180910390fd5b600060159054906101000a900460ff1615612199576040517f08c379a00000000000000000000000000000000000000000000000000000000081526004016121909061484d565b60405180910390fd5b6001600060156101000a81548160ff02191690831515021790555083600560006101000a81548173ffffffffffffffffffffffffffffffffffffffff021916908373ffffffffffffffffffffffffffffffffffffffff16021790555082600260006101000a81548173ffffffffffffffffffffffffffffffffffffffff021916908373ffffffffffffffffffffffffffffffffffffffff160217905550600260009054906101000a900473ffffffffffffffffffffffffffffffffffffffff1673ffffffffffffffffffffffffffffffffffffffff1663dacb2d017f467574757265734d61726b65744d616e616765720000000000000000000000006040518263ffffffff1660e01b81526004016122b19190614dbb565b602060405180830381865afa1580156122ce573d6000803e3d6000fd5b505050506040513d601f19601f820116820180604052508101906122f29190614de9565b600360006101000a81548173ffffffffffffffffffffffffffffffffffffffff021916908373ffffffffffffffffffffffffffffffffffffffff16021790555083600560006101000a81548173ffffffffffffffffffffffffffffffffffffffff021916908373ffffffffffffffffffffffffffffffffffffffff16021790555081600460006101000a81548173ffffffffffffffffffffffffffffffffffffffff021916908373ffffffffffffffffffffffffffffffffffffffff1602179055506123bd33612bd2565b80600160006101000a81548173ffffffffffffffffffffffffffffffffffffffff021916908373ffffffffffffffffffffffffffffffffffffffff16021790555050505050565b600033905090565b60008151905060ff801681111561245a57806040517f0a9fd21a0000000000000000000000000000000000000000000000000000000081526004016124519190613d79565b60405180910390fd5b6000805b828160ff161015612942576000848260ff1681518110612481576124806148d9565b5b60200260200101516000015190506000858360ff16815181106124a7576124a66148d9565b5b60200260200101516040015190506000868460ff16815181106124cd576124cc6148d9565b5b602002602001015160200151905060006124e684612b0c565b905060006124f38561077e565b9450505050506125108560001c6007612e8190919063ffffffff16565b1561285c57600081600f0b036125715761252985612ebd565b6000840361256c576040517f227a7b4d00000000000000000000000000000000000000000000000000000000815260040161256390614e3c565b60405180910390fd5b612857565b60008482600f0b6125829190614e55565b036128565761259085612ebd565b8173ffffffffffffffffffffffffffffffffffffffff1663a8c92cf67f4b57454e544100000000000000000000000000000000000000000000000000006040518263ffffffff1660e01b81526004016125e99190613f03565b600060405180830381600087803b15801561260357600080fd5b505af1158015612617573d6000803e3d6000fd5b505050508173ffffffffffffffffffffffffffffffffffffffff16635a1cbd2b6040518163ffffffff1660e01b8152600401600060405180830381600087803b15801561266357600080fd5b505af1158015612677573d6000803e3d6000fd5b50505050600061268f61268986612bb1565b84612fe8565b90506000600560009054906101000a900473ffffffffffffffffffffffffffffffffffffffff1673ffffffffffffffffffffffffffffffffffffffff1663a9059cbb600460009054906101000a900473ffffffffffffffffffffffffffffffffffffffff1673ffffffffffffffffffffffffffffffffffffffff166361d027b36040518163ffffffff1660e01b8152600401602060405180830381865afa15801561273e573d6000803e3d6000fd5b505050506040513d601f19601f820116820180604052508101906127629190614de9565b846040518363ffffffff1660e01b81526004016127809291906145c0565b6020604051808303816000875af115801561279f573d6000803e3d6000fd5b505050506040513d601f19601f820116820180604052508101906127c39190614615565b9050806127fc576040517f165e0bf200000000000000000000000000000000000000000000000000000000815260040160405180910390fd5b3073ffffffffffffffffffffffffffffffffffffffff167f3b0d6de922de3f4d0570347a069fd8c8eadd06c43824276593cce7088079939d8a6040516128429190613d79565b60405180910390a25050505050505061292f565b5b6128a0565b6000840361289f576040517f227a7b4d00000000000000000000000000000000000000000000000000000000815260040161289690614e3c565b60405180910390fd5b5b60008312156128cf576128b48385846130c4565b876128bf9190614ae1565b96506128ca8561325c565b612929565b60008313156128fe576128e38385846132db565b876128ee9190614ae1565b96506128f98561325c565b612928565b600084146129275761291084836134d6565b8761291b9190614ae1565b96506129268561325c565b5b5b5b50505050505b808061293a90614ef6565b91505061245e565b506000811115612b07576000600560009054906101000a900473ffffffffffffffffffffffffffffffffffffffff1673ffffffffffffffffffffffffffffffffffffffff1663a9059cbb600460009054906101000a900473ffffffffffffffffffffffffffffffffffffffff1673ffffffffffffffffffffffffffffffffffffffff166361d027b36040518163ffffffff1660e01b8152600401602060405180830381865afa1580156129f9573d6000803e3d6000fd5b505050506040513d601f19601f82011682018060405250810190612a1d9190614de9565b846040518363ffffffff1660e01b8152600401612a3b9291906145c0565b6020604051808303816000875af1158015612a5a573d6000803e3d6000fd5b505050506040513d601f19601f82011682018060405250810190612a7e9190614615565b905080612ab7576040517f165e0bf200000000000000000000000000000000000000000000000000000000815260040160405180910390fd5b3073ffffffffffffffffffffffffffffffffffffffff167f3b0d6de922de3f4d0570347a069fd8c8eadd06c43824276593cce7088079939d83604051612afd9190613d79565b60405180910390a2505b505050565b6000600360009054906101000a900473ffffffffffffffffffffffffffffffffffffffff1673ffffffffffffffffffffffffffffffffffffffff1663e63bfadb836040518263ffffffff1660e01b8152600401612b699190613f03565b602060405180830381865afa158015612b86573d6000803e3d6000fd5b505050506040513d601f19601f82011682018060405250810190612baa9190614de9565b9050919050565b6000808212612bc05781612bcb565b81612bca90614f1f565b5b9050919050565b60008060009054906101000a900473ffffffffffffffffffffffffffffffffffffffff169050816000806101000a81548173ffffffffffffffffffffffffffffffffffffffff021916908373ffffffffffffffffffffffffffffffffffffffff1602179055508173ffffffffffffffffffffffffffffffffffffffff168173ffffffffffffffffffffffffffffffffffffffff167f8be0079c531659141344cd1fd0a4f28419497f9722a3daafe3b4186f6b6457e060405160405180910390a35050565b73eeeeeeeeeeeeeeeeeeeeeeeeeeeeeeeeeeeeeeee73ffffffffffffffffffffffffffffffffffffffff168173ffffffffffffffffffffffffffffffffffffffff1603612d96576000612ce7610ddb565b73ffffffffffffffffffffffffffffffffffffffff1683604051612d0a90614a68565b60006040518083038185875af1925050503d8060008114612d47576040519150601f19603f3d011682016040523d82523d6000602084013e612d4c565b606091505b5050905080612d90576040517f08c379a0000000000000000000000000000000000000000000000000000000008152600401612d8790614fb3565b60405180910390fd5b50612da9565b612da881612da2610ddb565b84613615565b5b5050565b6000806000612dc7612dc28560000151612b0c565b61369b565b9050600084604001511315612de9578360600151811115819250925050612e12565b600084604001511215612e09578360600151811015819250925050612e12565b60008192509250505b915091565b6000806000612e31612e2c8560000151612b0c565b61369b565b9050600084604001511315612e53578360600151811015819250925050612e7c565b600084604001511215612e73578360600151811115819250925050612e7c565b60008192509250505b915091565b600080600883901c9050600060ff84166001901b9050600081866000016000858152602001908152602001600020541614159250505092915050565b6000600960008381526020019081526020016000205490506008805490508110612eea57612ee9614fd3565b5b60096000838152602001908152602001600020600090555b6001600880549050612f1491906146dd565b811015612fa25760086001820181548110612f3257612f316148d9565b5b906000526020600020015460088281548110612f5157612f506148d9565b5b9060005260206000200181905550806009600060088481548110612f7857612f776148d9565b5b90600052602060002001548152602001908152602001600020819055508080600101915050612f02565b6008805480612fb457612fb3615002565b5b60019003818190600052602060002001600090559055612fe48260001c600060076137539092919063ffffffff16565b5050565b6000612710600460009054906101000a900473ffffffffffffffffffffffffffffffffffffffff1673ffffffffffffffffffffffffffffffffffffffff166324bcdfbd6040518163ffffffff1660e01b8152600401602060405180830381865afa15801561305a573d6000803e3d6000fd5b505050506040513d601f19601f8201168201806040525081019061307e9190614768565b846130899190615031565b61309391906150ba565b9050670de0b6b3a7640000816130a88461369b565b6130b29190615031565b6130bc91906150ba565b905092915050565b60008083146131e9578173ffffffffffffffffffffffffffffffffffffffff1663a28a2bc0847f4b57454e544100000000000000000000000000000000000000000000000000006040518363ffffffff1660e01b81526004016131289291906150eb565b600060405180830381600087803b15801561314257600080fd5b505af1158015613156573d6000803e3d6000fd5b5050505061316c61316684612bb1565b83612fe8565b90508173ffffffffffffffffffffffffffffffffffffffff166388a3c84882866131969190615114565b6040518263ffffffff1660e01b81526004016131b291906151a8565b600060405180830381600087803b1580156131cc57600080fd5b505af11580156131e0573d6000803e3d6000fd5b50505050613255565b8173ffffffffffffffffffffffffffffffffffffffff166388a3c848856040518263ffffffff1660e01b815260040161322291906151a8565b600060405180830381600087803b15801561323c57600080fd5b505af1158015613250573d6000803e3d6000fd5b505050505b9392505050565b6132738160001c6007612e8190919063ffffffff16565b6132d857600880549050600960008381526020019081526020016000208190555060088190806001815401808255809150506001900390600052602060002001600090919091909150556132d78160001c600160076137539092919063ffffffff16565b5b50565b6000806132e785612bb1565b90506132f1610e73565b81111561333e57613300610e73565b816040517f3cb0273a000000000000000000000000000000000000000000000000000000008152600401613335929190614597565b60405180910390fd5b600084146134625761335861335285612bb1565b84612fe8565b91508273ffffffffffffffffffffffffffffffffffffffff166388a3c84883876133829190615114565b6040518263ffffffff1660e01b815260040161339e91906151a8565b600060405180830381600087803b1580156133b857600080fd5b505af11580156133cc573d6000803e3d6000fd5b505050508273ffffffffffffffffffffffffffffffffffffffff1663a28a2bc0857f4b57454e544100000000000000000000000000000000000000000000000000006040518363ffffffff1660e01b815260040161342b9291906150eb565b600060405180830381600087803b15801561344557600080fd5b505af1158015613459573d6000803e3d6000fd5b505050506134ce565b8273ffffffffffffffffffffffffffffffffffffffff166388a3c848866040518263ffffffff1660e01b815260040161349b91906151a8565b600060405180830381600087803b1580156134b557600080fd5b505af11580156134c9573d6000803e3d6000fd5b505050505b509392505050565b60008173ffffffffffffffffffffffffffffffffffffffff1663a28a2bc0847f4b57454e544100000000000000000000000000000000000000000000000000006040518363ffffffff1660e01b81526004016135339291906150eb565b600060405180830381600087803b15801561354d57600080fd5b505af1158015613561573d6000803e3d6000fd5b5050505061357761357184612bb1565b83612fe8565b90508173ffffffffffffffffffffffffffffffffffffffff166388a3c8487fffffffffffffffffffffffffffffffffffffffffffffffffffffffffffffffff836135c191906151c3565b6040518263ffffffff1660e01b81526004016135dd91906151a8565b600060405180830381600087803b1580156135f757600080fd5b505af115801561360b573d6000803e3d6000fd5b5050505092915050565b6136968363a9059cbb60e01b84846040516024016136349291906145c0565b604051602081830303815290604052907bffffffffffffffffffffffffffffffffffffffffffffffffffffffff19166020820180517bffffffffffffffffffffffffffffffffffffffffffffffffffffffff8381831617835250505050613778565b505050565b60008060008373ffffffffffffffffffffffffffffffffffffffff1663d24378eb6040518163ffffffff1660e01b81526004016040805180830381865afa1580156136ea573d6000803e3d6000fd5b505050506040513d601f19601f8201168201806040525081019061370e91906152da565b915091508015613749576040517ebfc92100000000000000000000000000000000000000000000000000000000815260040160405180910390fd5b8192505050919050565b801561376857613763838361383f565b613773565b613772838361387d565b5b505050565b60006137da826040518060400160405280602081526020017f5361666545524332303a206c6f772d6c6576656c2063616c6c206661696c65648152508573ffffffffffffffffffffffffffffffffffffffff166138bc9092919063ffffffff16565b905060008151111561383a57808060200190518101906137fa9190614615565b613839576040517f08c379a00000000000000000000000000000000000000000000000000000000081526004016138309061538c565b60405180910390fd5b5b505050565b6000600882901c9050600060ff83166001901b9050808460000160008481526020019081526020016000206000828254179250508190555050505050565b6000600882901c9050600060ff83166001901b905080198460000160008481526020019081526020016000206000828254169250508190555050505050565b60606138cb84846000856138d4565b90509392505050565b606082471015613919576040517f08c379a00000000000000000000000000000000000000000000000000000000081526004016139109061541e565b60405180910390fd5b613922856139e8565b613961576040517f08c379a00000000000000000000000000000000000000000000000000000000081526004016139589061548a565b60405180910390fd5b6000808673ffffffffffffffffffffffffffffffffffffffff16858760405161398a91906154db565b60006040518083038185875af1925050503d80600081146139c7576040519150601f19603f3d011682016040523d82523d6000602084013e6139cc565b606091505b50915091506139dc828286613a0b565b92505050949350505050565b6000808273ffffffffffffffffffffffffffffffffffffffff163b119050919050565b60608315613a1b57829050613a6b565b600083511115613a2e5782518084602001fd5b816040517f08c379a0000000000000000000000000000000000000000000000000000000008152600401613a629190615536565b60405180910390fd5b9392505050565b60405180606001604052806000801916815260200160008152602001600081525090565b6000604051905090565b600080fd5b600080fd5b6000819050919050565b613abd81613aaa565b8114613ac857600080fd5b50565b600081359050613ada81613ab4565b92915050565b600080fd5b6000601f19601f8301169050919050565b7f4e487b7100000000000000000000000000000000000000000000000000000000600052604160045260246000fd5b613b2e82613ae5565b810181811067ffffffffffffffff82111715613b4d57613b4c613af6565b5b80604052505050565b6000613b60613a96565b9050613b6c8282613b25565b919050565b600067ffffffffffffffff821115613b8c57613b8b613af6565b5b602082029050602081019050919050565b600080fd5b600080fd5b6000819050919050565b613bba81613ba7565b8114613bc557600080fd5b50565b600081359050613bd781613bb1565b92915050565b6000819050919050565b613bf081613bdd565b8114613bfb57600080fd5b50565b600081359050613c0d81613be7565b92915050565b600060608284031215613c2957613c28613ba2565b5b613c336060613b56565b90506000613c4384828501613bc8565b6000830152506020613c5784828501613bfe565b6020830152506040613c6b84828501613bfe565b60408301525092915050565b6000613c8a613c8584613b71565b613b56565b90508083825260208201905060608402830185811115613cad57613cac613b9d565b5b835b81811015613cd65780613cc28882613c13565b845260208401935050606081019050613caf565b5050509392505050565b600082601f830112613cf557613cf4613ae0565b5b8135613d05848260208601613c77565b91505092915050565b60008060408385031215613d2557613d24613aa0565b5b6000613d3385828601613acb565b925050602083013567ffffffffffffffff811115613d5457613d53613aa5565b5b613d6085828601613ce0565b9150509250929050565b613d7381613aaa565b82525050565b6000602082019050613d8e6000830184613d6a565b92915050565b600060208284031215613daa57613da9613aa0565b5b6000613db884828501613bc8565b91505092915050565b600067ffffffffffffffff82169050919050565b613dde81613dc1565b82525050565b60006fffffffffffffffffffffffffffffffff82169050919050565b613e0981613de4565b82525050565b600081600f0b9050919050565b613e2581613e0f565b82525050565b600060a082019050613e406000830188613dd5565b613e4d6020830187613dd5565b613e5a6040830186613e00565b613e676060830185613e00565b613e746080830184613e1c565b9695505050505050565b600060208284031215613e9457613e93613aa0565b5b6000613ea284828501613acb565b91505092915050565b600060208284031215613ec157613ec0613aa0565b5b600082013567ffffffffffffffff811115613edf57613ede613aa5565b5b613eeb84828501613ce0565b91505092915050565b613efd81613ba7565b82525050565b6000602082019050613f186000830184613ef4565b92915050565b600073ffffffffffffffffffffffffffffffffffffffff82169050919050565b6000819050919050565b6000613f63613f5e613f5984613f1e565b613f3e565b613f1e565b9050919050565b6000613f7582613f48565b9050919050565b6000613f8782613f6a565b9050919050565b613f9781613f7c565b82525050565b6000602082019050613fb26000830184613f8e565b92915050565b6000613fc382613f1e565b9050919050565b613fd381613fb8565b82525050565b6000602082019050613fee6000830184613fca565b92915050565b6000613fff82613f6a565b9050919050565b61400f81613ff4565b82525050565b600060208201905061402a6000830184614006565b92915050565b600061403b82613f1e565b9050919050565b61404b81614030565b82525050565b60006020820190506140666000830184614042565b92915050565b61407581614030565b811461408057600080fd5b50565b6000813590506140928161406c565b92915050565b600080604083850312156140af576140ae613aa0565b5b60006140bd85828601614083565b92505060206140ce85828601613acb565b9150509250929050565b60008115159050919050565b6140ed816140d8565b82525050565b600081519050919050565b600082825260208201905092915050565b60005b8381101561412d578082015181840152602081019050614112565b8381111561413c576000848401525b50505050565b600061414d826140f3565b61415781856140fe565b935061416781856020860161410f565b61417081613ae5565b840191505092915050565b600060408201905061419060008301856140e4565b81810360208301526141a28184614142565b90509392505050565b6141b481613bdd565b82525050565b7f4e487b7100000000000000000000000000000000000000000000000000000000600052602160045260246000fd5b600281106141fa576141f96141ba565b5b50565b600081905061420b826141e9565b919050565b600061421b826141fd565b9050919050565b61422b81614210565b82525050565b600060c0820190506142466000830189613ef4565b61425360208301886141ab565b61426060408301876141ab565b61426d6060830186613d6a565b61427a6080830185613ef4565b61428760a0830184614222565b979650505050505050565b6002811061429f57600080fd5b50565b6000813590506142b181614292565b92915050565b600080600080600060a086880312156142d3576142d2613aa0565b5b60006142e188828901613bc8565b95505060206142f288828901613bfe565b945050604061430388828901613bfe565b935050606061431488828901613acb565b9250506080614325888289016142a2565b9150509295509295909350565b600060408201905061434760008301856140e4565b6143546020830184613d6a565b9392505050565b60006020828403121561437157614370613aa0565b5b600061437f84828501614083565b91505092915050565b61439181613fb8565b811461439c57600080fd5b50565b6000813590506143ae81614388565b92915050565b600080600080608085870312156143ce576143cd613aa0565b5b60006143dc87828801614083565b94505060206143ed87828801614083565b93505060406143fe87828801614083565b925050606061440f8782880161439f565b91505092959194509250565b600082825260208201905092915050565b7f4f776e61626c653a2063616c6c6572206973206e6f7420746865206f776e6572600082015250565b600061446260208361441b565b915061446d8261442c565b602082019050919050565b6000602082019050818103600083015261449181614455565b9050919050565b6144a181613dc1565b81146144ac57600080fd5b50565b6000815190506144be81614498565b92915050565b6144cd81613de4565b81146144d857600080fd5b50565b6000815190506144ea816144c4565b92915050565b6144f981613e0f565b811461450457600080fd5b50565b600081519050614516816144f0565b92915050565b600080600080600060a0868803121561453857614537613aa0565b5b6000614546888289016144af565b9550506020614557888289016144af565b9450506040614568888289016144db565b9350506060614579888289016144db565b925050608061458a88828901614507565b9150509295509295909350565b60006040820190506145ac6000830185613d6a565b6145b96020830184613d6a565b9392505050565b60006040820190506145d56000830185614042565b6145e26020830184613d6a565b9392505050565b6145f2816140d8565b81146145fd57600080fd5b50565b60008151905061460f816145e9565b92915050565b60006020828403121561462b5761462a613aa0565b5b600061463984828501614600565b91505092915050565b7f4d617267696e426173653a207769746864726177206661696c65640000000000600082015250565b6000614678601b8361441b565b915061468382614642565b602082019050919050565b600060208201905081810360008301526146a78161466b565b9050919050565b7f4e487b7100000000000000000000000000000000000000000000000000000000600052601160045260246000fd5b60006146e882613aaa565b91506146f383613aaa565b925082821015614706576147056146ae565b5b828203905092915050565b60008151905061472081614388565b92915050565b60006020828403121561473c5761473b613aa0565b5b600061474a84828501614711565b91505092915050565b60008151905061476281613ab4565b92915050565b60006020828403121561477e5761477d613aa0565b5b600061478c84828501614753565b91505092915050565b7f43616e6e6f7420696e697469616c697a6520696d706c656d656e746174696f6e600082015250565b60006147cb60208361441b565b91506147d682614795565b602082019050919050565b600060208201905081810360008301526147fa816147be565b9050919050565b7f416c726561647920696e697469616c697a656400000000000000000000000000600082015250565b600061483760138361441b565b915061484282614801565b602082019050919050565b600060208201905081810360008301526148668161482a565b9050919050565b7f4f707352656164793a206f6e6c794f7073000000000000000000000000000000600082015250565b60006148a360118361441b565b91506148ae8261486d565b602082019050919050565b600060208201905081810360008301526148d281614896565b9050919050565b7f4e487b7100000000000000000000000000000000000000000000000000000000600052603260045260246000fd5b6000815190506149178161406c565b92915050565b6000806040838503121561493457614933613aa0565b5b600061494285828601614753565b925050602061495385828601614908565b9150509250929050565b60006060820190506149726000830186613d6a565b61497f6020830185613d6a565b61498c6040830184613d6a565b949350505050565b60006060820190506149a96000830186614042565b6149b66020830185614042565b6149c36040830184613d6a565b949350505050565b7f4d617267696e426173653a206465706f736974206661696c6564000000000000600082015250565b6000614a01601a8361441b565b9150614a0c826149cb565b602082019050919050565b60006020820190508181036000830152614a30816149f4565b9050919050565b600081905092915050565b50565b6000614a52600083614a37565b9150614a5d82614a42565b600082019050919050565b6000614a7382614a45565b9150819050919050565b6000819050919050565b6000614aa2614a9d614a9884614a7d565b613f3e565b613aaa565b9050919050565b614ab281614a87565b82525050565b6000604082019050614acd6000830185613d6a565b614ada6020830184614aa9565b9392505050565b6000614aec82613aaa565b9150614af783613aaa565b9250827fffffffffffffffffffffffffffffffffffffffffffffffffffffffffffffffff03821115614b2c57614b2b6146ae565b5b828201905092915050565b60007fffffffff0000000000000000000000000000000000000000000000000000000082169050919050565b614b6c81614b37565b82525050565b600060a082019050614b876000830188614042565b614b946020830187614b63565b614ba16040830186614042565b8181036060830152614bb38185614142565b9050614bc26080830184614042565b9695505050505050565b600081519050614bdb81613bb1565b92915050565b600060208284031215614bf757614bf6613aa0565b5b6000614c0584828501614bcc565b91505092915050565b600060c082019050614c236000830189613d6a565b614c306020830188613ef4565b614c3d60408301876141ab565b614c4a60608301866141ab565b614c576080830185613d6a565b614c6460a0830184614222565b979650505050505050565b6000614c7a82613aaa565b91507fffffffffffffffffffffffffffffffffffffffffffffffffffffffffffffffff8203614cac57614cab6146ae565b5b600182019050919050565b7f4f776e61626c653a206e6577206f776e657220697320746865207a65726f206160008201527f6464726573730000000000000000000000000000000000000000000000000000602082015250565b6000614d1360268361441b565b9150614d1e82614cb7565b604082019050919050565b60006020820190508181036000830152614d4281614d06565b9050919050565b7f4d617267696e426173653a20436f756c64206e6f74206765742046757475726560008201527f73204d61726b6574204d616e6167657200000000000000000000000000000000602082015250565b6000614da560308361441b565b9150614db082614d49565b604082019050919050565b6000604082019050614dd06000830184613ef4565b8181036020830152614de181614d98565b905092915050565b600060208284031215614dff57614dfe613aa0565b5b6000614e0d84828501614908565b91505092915050565b7f73697a6544656c74610000000000000000000000000000000000000000000000815250565b6000602082019050614e5060008301614e16565b919050565b6000614e6082613bdd565b9150614e6b83613bdd565b9250817f7fffffffffffffffffffffffffffffffffffffffffffffffffffffffffffffff03831360008312151615614ea657614ea56146ae565b5b817f8000000000000000000000000000000000000000000000000000000000000000038312600083121615614ede57614edd6146ae565b5b828201905092915050565b600060ff82169050919050565b6000614f0182614ee9565b915060ff8203614f1457614f136146ae565b5b600182019050919050565b6000614f2a82613bdd565b91507f80000000000000000000000000000000000000000000000000000000000000008203614f5c57614f5b6146ae565b5b816000039050919050565b7f5f7472616e736665723a20455448207472616e73666572206661696c65640000600082015250565b6000614f9d601e8361441b565b9150614fa882614f67565b602082019050919050565b60006020820190508181036000830152614fcc81614f90565b9050919050565b7f4e487b7100000000000000000000000000000000000000000000000000000000600052600160045260246000fd5b7f4e487b7100000000000000000000000000000000000000000000000000000000600052603160045260246000fd5b600061503c82613aaa565b915061504783613aaa565b9250817fffffffffffffffffffffffffffffffffffffffffffffffffffffffffffffffff04831182151516156150805761507f6146ae565b5b828202905092915050565b7f4e487b7100000000000000000000000000000000000000000000000000000000600052601260045260246000fd5b60006150c582613aaa565b91506150d083613aaa565b9250826150e0576150df61508b565b5b828204905092915050565b600060408201905061510060008301856141ab565b61510d6020830184613ef4565b9392505050565b600061511f82613bdd565b915061512a83613bdd565b9250827f800000000000000000000000000000000000000000000000000000000000000001821260008412151615615165576151646146ae565b5b827f7fffffffffffffffffffffffffffffffffffffffffffffffffffffffffffffff01821360008412161561519d5761519c6146ae565b5b828203905092915050565b60006020820190506151bd60008301846141ab565b92915050565b60006151ce82613bdd565b91506151d983613bdd565b9250827f7fffffffffffffffffffffffffffffffffffffffffffffffffffffffffffffff0482116000841360008413161615615218576152176146ae565b5b817f80000000000000000000000000000000000000000000000000000000000000000583126000841260008413161615615255576152546146ae565b5b827f80000000000000000000000000000000000000000000000000000000000000000582126000841360008412161615615292576152916146ae565b5b827f7fffffffffffffffffffffffffffffffffffffffffffffffffffffffffffffff05821260008412600084121616156152cf576152ce6146ae565b5b828202905092915050565b600080604083850312156152f1576152f0613aa0565b5b60006152ff85828601614753565b925050602061531085828601614600565b9150509250929050565b7f5361666545524332303a204552433230206f7065726174696f6e20646964206e60008201527f6f74207375636365656400000000000000000000000000000000000000000000602082015250565b6000615376602a8361441b565b91506153818261531a565b604082019050919050565b600060208201905081810360008301526153a581615369565b9050919050565b7f416464726573733a20696e73756666696369656e742062616c616e636520666f60008201527f722063616c6c0000000000000000000000000000000000000000000000000000602082015250565b600061540860268361441b565b9150615413826153ac565b604082019050919050565b60006020820190508181036000830152615437816153fb565b9050919050565b7f416464726573733a2063616c6c20746f206e6f6e2d636f6e7472616374000000600082015250565b6000615474601d8361441b565b915061547f8261543e565b602082019050919050565b600060208201905081810360008301526154a381615467565b9050919050565b60006154b5826140f3565b6154bf8185614a37565b93506154cf81856020860161410f565b80840191505092915050565b60006154e782846154aa565b915081905092915050565b600081519050919050565b6000615508826154f2565b615512818561441b565b935061552281856020860161410f565b61552b81613ae5565b840191505092915050565b6000602082019050818103600083015261555081846154fd565b90509291505056fea2646970667358221220903875e2d1849628eb7dc68d943d50e88a4ab4848a91780a5cc9cd1ed39b70e264736f6c634300080d0033",
  "devdoc": {
    "author": "JaredBorders (jaredborders@proton.me), JChiaramonte7 (jeremy@bytecode.llc)",
    "kind": "dev",
    "methods": {
      "constructor": {
        "params": {
          "_addressResolver": ": contract address for synthetix address resolver",
          "_marginAsset": ": token contract address used for account margin",
          "_marginBaseSettings": ": contract address for MarginBase account settings",
          "_ops": ": contract address for gelato ops -- must be payable",
          "_version": ": version of contract"
        }
      },
      "newAccount()": {
        "details": "this contract is the initial owner of cloned MarginBase, but ownership is transferred after successful initialization"
      }
    },
    "title": "Kwenta MarginBase Factory",
    "version": 1
  },
  "userdoc": {
    "kind": "user",
    "methods": {
      "addressResolver()": {
        "notice": "synthetix address resolver"
      },
      "constructor": {
        "notice": "deploy MarginBase implementation to later be cloned"
      },
      "implementation()": {
        "notice": "MarginBase contract acting as user's account"
      },
      "marginAsset()": {
        "notice": "ERC20 token used to interact with markets"
      },
      "marginBaseSettings()": {
        "notice": "settings for MarginBase accounts"
      },
      "newAccount()": {
        "notice": "clone MarginBase (i.e. create new account for user)"
      },
      "ops()": {
        "notice": "gelato ops"
      }
    },
    "notice": "Factory which enables deploying a MarginBase account for any user ",
    "version": 1
  },
  "storageLayout": {
    "storage": [
      {
        "astId": 871,
        "contract": "contracts/MarginAccountFactory.sol:MarginAccountFactory",
        "label": "version",
        "offset": 0,
        "slot": "0",
        "type": "t_string_storage"
      },
      {
        "astId": 885,
        "contract": "contracts/MarginAccountFactory.sol:MarginAccountFactory",
        "label": "marginBaseSettings",
        "offset": 0,
        "slot": "1",
        "type": "t_address"
      }
    ],
    "types": {
      "t_address": {
        "encoding": "inplace",
        "label": "address",
        "numberOfBytes": "20"
      },
      "t_string_storage": {
        "encoding": "bytes",
        "label": "string",
        "numberOfBytes": "32"
      }
    }
  }
}