{
  "address": "0x8e43BF1910ad1461EEe0Daca10547c7e6d9D2f36",
  "abi": [
    {
      "inputs": [
        {
          "internalType": "string",
          "name": "_version",
          "type": "string"
        },
        {
          "internalType": "address",
          "name": "_marginAsset",
          "type": "address"
        },
        {
          "internalType": "address",
          "name": "_addressResolver",
          "type": "address"
        },
        {
          "internalType": "address",
          "name": "_marginBaseSettings",
          "type": "address"
        },
        {
          "internalType": "address payable",
          "name": "_ops",
          "type": "address"
        }
      ],
      "stateMutability": "nonpayable",
      "type": "constructor"
    },
    {
      "anonymous": false,
      "inputs": [
        {
          "indexed": true,
          "internalType": "address",
          "name": "owner",
          "type": "address"
        },
        {
          "indexed": false,
          "internalType": "address",
          "name": "account",
          "type": "address"
        }
      ],
      "name": "NewAccount",
      "type": "event"
    },
    {
      "inputs": [],
      "name": "addressResolver",
      "outputs": [
        {
          "internalType": "address",
          "name": "",
          "type": "address"
        }
      ],
      "stateMutability": "view",
      "type": "function"
    },
    {
      "inputs": [],
      "name": "implementation",
      "outputs": [
        {
          "internalType": "contract MarginBase",
          "name": "",
          "type": "address"
        }
      ],
      "stateMutability": "view",
      "type": "function"
    },
    {
      "inputs": [],
      "name": "marginAsset",
      "outputs": [
        {
          "internalType": "contract IERC20",
          "name": "",
          "type": "address"
        }
      ],
      "stateMutability": "view",
      "type": "function"
    },
    {
      "inputs": [],
      "name": "marginBaseSettings",
      "outputs": [
        {
          "internalType": "address",
          "name": "",
          "type": "address"
        }
      ],
      "stateMutability": "view",
      "type": "function"
    },
    {
      "inputs": [],
      "name": "newAccount",
      "outputs": [
        {
          "internalType": "address payable",
          "name": "accountAddress",
          "type": "address"
        }
      ],
      "stateMutability": "nonpayable",
      "type": "function"
    },
    {
      "inputs": [],
      "name": "ops",
      "outputs": [
        {
          "internalType": "address payable",
          "name": "",
          "type": "address"
        }
      ],
      "stateMutability": "view",
      "type": "function"
    },
    {
      "inputs": [],
      "name": "version",
      "outputs": [
        {
          "internalType": "string",
          "name": "",
          "type": "string"
        }
      ],
      "stateMutability": "view",
      "type": "function"
    }
  ],
  "transactionHash": "0xa5f3e03ebcc9bdbd3c0f9e4e9fb82631850888e003340f1a32cf2149e3b86113",
  "args": [
    "1.0.2",
    "0x8c6f28f2F1A3C87F0f938b96d27520d9751ec8d9",
    "0x1Cb059b7e74fD21665968C908806143E744D5F30",
    "0x8954C7b1417E3De398c7F33520EbAe142929Ba2A",
    "0x340759c8346A1E6Ed92035FB8B6ec57cE1D82c2c"
  ],
  "numDeployments": 2,
  "solcInputHash": "57435865946913c35bd1b72f34ad11dc",
  "bytecode": "0x6101206040523480156200001257600080fd5b506040516200434738038062004347833981016040819052620000359162000189565b84516200004a906000906020880190620000a2565b50604051620000599062000131565b604051809103906000f08015801562000076573d6000803e3d6000fd5b506001600160a01b0390811660805293841660a05291831660c052821660e052166101005250620002ee565b828054620000b090620002b2565b90600052602060002090601f016020900481019282620000d457600085556200011f565b82601f10620000ef57805160ff19168380011785556200011f565b828001600101855582156200011f579182015b828111156200011f57825182559160200191906001019062000102565b506200012d9291506200013f565b5090565b6139e0806200096783390190565b5b808211156200012d576000815560010162000140565b634e487b7160e01b600052604160045260246000fd5b80516001600160a01b03811681146200018457600080fd5b919050565b600080600080600060a08688031215620001a257600080fd5b85516001600160401b0380821115620001ba57600080fd5b818801915088601f830112620001cf57600080fd5b815181811115620001e457620001e462000156565b604051601f8201601f19908116603f011681019083821181831017156200020f576200020f62000156565b81604052828152602093508b848487010111156200022c57600080fd5b600091505b8282101562000250578482018401518183018501529083019062000231565b82821115620002625760008484830101525b9850620002749150508882016200016c565b9550505062000286604087016200016c565b925062000296606087016200016c565b9150620002a6608087016200016c565b90509295509295909350565b600181811c90821680620002c757607f821691505b602082108103620002e857634e487b7160e01b600052602260045260246000fd5b50919050565b60805160a05160c05160e05161010051610613620003546000396000818161015d015261031601526000818160cb01526102ee015260008181608701526102c601526000818161012e015261029e015260008181610107015261021401526106136000f3fe608060405234801561001057600080fd5b506004361061007d5760003560e01c80635c60da1b1161005b5780635c60da1b1461010257806382689cae14610129578063bf335e6214610150578063e70abe921461015857600080fd5b806305a2ee2a1461008257806334b366f9146100c657806354fd4d50146100ed575b600080fd5b6100a97f000000000000000000000000000000000000000000000000000000000000000081565b6040516001600160a01b0390911681526020015b60405180910390f35b6100a97f000000000000000000000000000000000000000000000000000000000000000081565b6100f561017f565b6040516100bd9190610535565b6100a97f000000000000000000000000000000000000000000000000000000000000000081565b6100a97f000000000000000000000000000000000000000000000000000000000000000081565b6100a961020d565b6100a97f000000000000000000000000000000000000000000000000000000000000000081565b6000805461018c9061058a565b80601f01602080910402602001604051908101604052809291908181526020018280546101b89061058a565b80156102055780601f106101da57610100808354040283529160200191610205565b820191906000526020600020905b8154815290600101906020018083116101e857829003601f168201915b505050505081565b600061026e7f00000000000000000000000000000000000000000000000000000000000000006040518060400160405280601081526020017f4372656174696f6e206661696c75726500000000000000000000000000000000815250610433565b6040517ff8c8765e0000000000000000000000000000000000000000000000000000000081526001600160a01b037f0000000000000000000000000000000000000000000000000000000000000000811660048301527f0000000000000000000000000000000000000000000000000000000000000000811660248301527f0000000000000000000000000000000000000000000000000000000000000000811660448301527f000000000000000000000000000000000000000000000000000000000000000081166064830152919250829182169063f8c8765e90608401600060405180830381600087803b15801561036757600080fd5b505af115801561037b573d6000803e3d6000fd5b50506040517ff2fde38b0000000000000000000000000000000000000000000000000000000081523360048201526001600160a01b038416925063f2fde38b9150602401600060405180830381600087803b1580156103d957600080fd5b505af11580156103ed573d6000803e3d6000fd5b50506040516001600160a01b03851681523392507f14cb25cca821184a88389fa7823ef6a4cd65897a89cbdcf5169542b8d790478b915060200160405180910390a25090565b604080517f3d602d80600a3d3981f30000000000000000000000000000000000000000000060208201527f363d3d373d3d3d363d7300000000000000000000000000000000000000000000602a8201526bffffffffffffffffffffffff19606085901b1660348201527f5af43d82803e903d91602b57fd5bf3000000000000000000000000000000000060488201528151603781830301815260579091019091526000906037602082016000f09150826001600160a01b03831661052d576040517f08c379a00000000000000000000000000000000000000000000000000000000081526004016105249190610535565b60405180910390fd5b505092915050565b600060208083528351808285015260005b8181101561056257858101830151858201604001528201610546565b81811115610574576000604083870101525b50601f01601f1916929092016040019392505050565b600181811c9082168061059e57607f821691505b6020821081036105d7577f4e487b7100000000000000000000000000000000000000000000000000000000600052602260045260246000fd5b5091905056fea26469706673582212203176c2790071159b977aa2c0876d841e384aba1bebe483589c4b18539890549c64736f6c634300080d003360806040523480156200001157600080fd5b506200001d3362000036565b6000805460ff60a01b1916600160a01b17905562000086565b600080546001600160a01b038381166001600160a01b0319831681178455604051919092169283917f8be0079c531659141344cd1fd0a4f28419497f9722a3daafe3b4186f6b6457e09190a35050565b61394a80620000966000396000f3fe6080604052600436106101c65760003560e01c806382689cae116100f7578063ac95f50c11610095578063e70abe9211610064578063e70abe92146105d2578063ea1d5ae6146105f2578063f2fde38b14610629578063f8c8765e1461064957600080fd5b8063ac95f50c14610552578063b6b55f251461057f578063c311d0491461059f578063d3c7dfa9146105bf57600080fd5b806394e05b2c116100d157806394e05b2c1461048057806394f61134146104ae578063a4890337146104ce578063a85c38ef146104e457600080fd5b806382689cae1461041a5780638322fff21461043a5780638da5cb5b1461046257600080fd5b80634dd8b01a11610164578063613838051161013e57806361383805146103c657806362ba056f146103db578063715018a6146103f05780638129fc1c1461040557600080fd5b80634dd8b01a1461037e578063514fcac714610391578063573ea575146103b157600080fd5b80632e1a7d4d116101a05780632e1a7d4d146102e6578063301249d914610306578063325314e51461032657806334b366f91461034657600080fd5b80630c5ad57114610231578063163de5e5146102515780631928b3cb1461027a57600080fd5b3661022c576000546001600160a01b0316331461022a5760405162461bcd60e51b815260206004820181905260248201527f4f776e61626c653a2063616c6c6572206973206e6f7420746865206f776e657260448201526064015b60405180910390fd5b005b600080fd5b34801561023d57600080fd5b5061022a61024c366004613222565b610669565b34801561025d57600080fd5b50610267600b5481565b6040519081526020015b60405180910390f35b34801561028657600080fd5b5061029a610295366004613269565b6106db565b6040805167ffffffffffffffff96871681529590941660208601526fffffffffffffffffffffffffffffffff92831693850193909352166060830152600f0b608082015260a001610271565b3480156102f257600080fd5b5061022a610301366004613269565b610781565b34801561031257600080fd5b5061022a610321366004613282565b610961565b34801561033257600080fd5b50610267610341366004613269565b6109c9565b34801561035257600080fd5b50600454610366906001600160a01b031681565b6040516001600160a01b039091168152602001610271565b61026761038c3660046132cb565b6109ea565b34801561039d57600080fd5b5061022a6103ac366004613269565b610a05565b3480156103bd57600080fd5b50610366610c0f565b3480156103d257600080fd5b50610267610c9b565b3480156103e757600080fd5b50600854610267565b3480156103fc57600080fd5b5061022a610d2f565b34801561041157600080fd5b5061022a610d95565b34801561042657600080fd5b50600554610366906001600160a01b031681565b34801561044657600080fd5b5061036673eeeeeeeeeeeeeeeeeeeeeeeeeeeeeeeeeeeeeeee81565b34801561046e57600080fd5b506000546001600160a01b0316610366565b34801561048c57600080fd5b506104a061049b366004613269565b610e5e565b604051610271929190613374565b3480156104ba57600080fd5b5061022a6104c9366004613269565b610ea8565b3480156104da57600080fd5b5061026760065481565b3480156104f057600080fd5b5061053f6104ff366004613269565b600a6020526000908152604090208054600182015460028301546003840154600485015460058601546006909601549495939492939192909160ff169087565b60405161027197969594939291906133c7565b34801561055e57600080fd5b5061026761056d366004613269565b60096020526000908152604090205481565b34801561058b57600080fd5b5061022a61059a366004613269565b61135c565b3480156105ab57600080fd5b5061022a6105ba366004613269565b6113bf565b6102676105cd366004613409565b6114a6565b3480156105de57600080fd5b50600154610366906001600160a01b031681565b3480156105fe57600080fd5b5061061261060d366004613269565b6114c1565b604080519215158352602083019190915201610271565b34801561063557600080fd5b5061022a610644366004613467565b6116fe565b34801561065557600080fd5b5061022a610664366004613484565b6117dd565b6000546001600160a01b031633146106c35760405162461bcd60e51b815260206004820181905260248201527f4f776e61626c653a2063616c6c6572206973206e6f7420746865206f776e65726044820152606401610221565b6106cc82611a37565b6106d7816000611b7f565b5050565b60008060008060006106ec8661201c565b6040517f55f575100000000000000000000000000000000000000000000000000000000081523060048201526001600160a01b0391909116906355f575109060240160a060405180830381865afa15801561074b573d6000803e3d6000fd5b505050506040513d601f19601f8201168201806040525081019061076f9190613518565b939a9299509097509550909350915050565b806617d85b5bdd5b9d60ca1b816000036107b15760405163227a7b4d60e01b815260048101829052602401610221565b6000546001600160a01b0316331461080b5760405162461bcd60e51b815260206004820181905260248201527f4f776e61626c653a2063616c6c6572206973206e6f7420746865206f776e65726044820152606401610221565b610813610c9b565b83111561084657610822610c9b565b604051631e58139d60e11b8152600481019190915260248101849052604401610221565b6005546001600160a01b031663a9059cbb6108696000546001600160a01b031690565b6040516001600160e01b031960e084901b1681526001600160a01b039091166004820152602481018690526044016020604051808303816000875af11580156108b6573d6000803e3d6000fd5b505050506040513d601f19601f820116820180604052508101906108da9190613597565b6109265760405162461bcd60e51b815260206004820152601b60248201527f4d617267696e426173653a207769746864726177206661696c656400000000006044820152606401610221565b60405183815233907f884edad9ce6fa2440d8a54cc123490eb96d2768479d49ff9c7366125a9424364906020015b60405180910390a2505050565b6000546001600160a01b031633146109bb5760405162461bcd60e51b815260206004820181905260248201527f4f776e61626c653a2063616c6c6572206973206e6f7420746865206f776e65726044820152606401610221565b6109c6816000611b7f565b50565b600881815481106109d957600080fd5b600091825260209091200154905081565b60006109fa8787878787876120a9565b979650505050505050565b6000546001600160a01b03163314610a5f5760405162461bcd60e51b815260206004820181905260248201527f4f776e61626c653a2063616c6c6572206973206e6f7420746865206f776e65726044820152606401610221565b6000600a60008381526020019081526020016000206040518060e001604052908160008201548152602001600182015481526020016002820154815260200160038201548152602001600482015481526020016005820160009054906101000a900460ff166001811115610ad557610ad561338f565b6001811115610ae657610ae661338f565b81526020016006820154815250509050600081602001511315610b2757610b108160200151612441565b60066000828254610b2191906135c8565b90915550505b600154608082015160405163ee8ca3b560e01b81526001600160a01b039092169163ee8ca3b591610b5e9160040190815260200190565b600060405180830381600087803b158015610b7857600080fd5b505af1158015610b8c573d6000803e3d6000fd5b5050506000838152600a60205260408082208281556001810183905560028101839055600381018390556004810183905560058101805460ff1916905560060191909155513091507fdd003742fb214507783ce004fe55f5ac14f89c6de4a7cd7487e47eb091c6226590610c039085815260200190565b60405180910390a25050565b600154604080517f573ea57500000000000000000000000000000000000000000000000000000000815290516000926001600160a01b03169163573ea5759160048083019260209291908290030181865afa158015610c72573d6000803e3d6000fd5b505050506040513d601f19601f82011682018060405250810190610c9691906135df565b905090565b6006546005546040517f70a08231000000000000000000000000000000000000000000000000000000008152306004820152600092916001600160a01b0316906370a0823190602401602060405180830381865afa158015610d01573d6000803e3d6000fd5b505050506040513d601f19601f82011682018060405250810190610d2591906135fc565b610c9691906135c8565b6000546001600160a01b03163314610d895760405162461bcd60e51b815260206004820181905260248201527f4f776e61626c653a2063616c6c6572206973206e6f7420746865206f776e65726044820152606401610221565b610d936000612459565b565b600054600160a01b900460ff1615610def5760405162461bcd60e51b815260206004820181905260248201527f43616e6e6f7420696e697469616c697a6520696d706c656d656e746174696f6e6044820152606401610221565b600054600160a81b900460ff1615610e495760405162461bcd60e51b815260206004820152601360248201527f416c726561647920696e697469616c697a6564000000000000000000000000006044820152606401610221565b6000805460ff60a81b1916600160a81b179055565b60006060610e6b836114c1565b50604080516024808201969096528151808203909601865260440190526020840180516001600160e01b031663253d844d60e21b17905293915050565b6001546001600160a01b03163314610f025760405162461bcd60e51b815260206004820152601160248201527f4f707352656164793a206f6e6c794f70730000000000000000000000000000006044820152606401610221565b600080610f0e836114c1565b9150915081610f49576040517f2e0c0f7100000000000000000000000000000000000000000000000000000000815260040160405180910390fd5b6000600a60008581526020019081526020016000206040518060e001604052908160008201548152602001600182015481526020016002820154815260200160038201548152602001600482015481526020016005820160009054906101000a900460ff166001811115610fbf57610fbf61338f565b6001811115610fd057610fd061338f565b8152602001600682015481525050905060008160200151131561101157610ffa8160200151612441565b6006600082825461100b91906135c8565b90915550505b604080516001808252818301909252600091816020015b60408051606081018252600080825260208083018290529282015282526000199092019101816110285790505090506040518060600160405280836000015181526020018360200151815260200183604001518152508160008151811061109157611091613615565b6020908102919091010152600154608083015160405163ee8ca3b560e01b81526001600160a01b039092169163ee8ca3b5916110d39160040190815260200190565b600060405180830381600087803b1580156110ed57600080fd5b505af1158015611101573d6000803e3d6000fd5b5050506000868152600a602052604081208181556001810182905560028101829055600381018290556004810182905560058101805460ff191690556006018190559050808360a00151600181111561115c5761115c61338f565b146111ea5760048054604080517fd45152c800000000000000000000000000000000000000000000000000000000815290516001600160a01b039092169263d45152c89282820192602092908290030181865afa1580156111c1573d6000803e3d6000fd5b505050506040513d601f19601f820116820180604052508101906111e591906135fc565b61126e565b60048054604080517f27ca100900000000000000000000000000000000000000000000000000000000815290516001600160a01b03909216926327ca10099282820192602092908290030181865afa15801561124a573d6000803e3d6000fd5b505050506040513d601f19601f8201168201806040525081019061126e91906135fc565b905061127a8282611b7f565b600154604080517fb810c636000000000000000000000000000000000000000000000000000000008152815160009384936001600160a01b039091169263b810c63692600480830193928290030181865afa1580156112dd573d6000803e3d6000fd5b505050506040513d601f19601f82011682018060405250810190611301919061362b565b9150915061130f82826124b6565b604080518981526020810188905290810183905230907fc3813414294c4ab73f9881fe38ec4294109bb7bfce21e6909e91fab10d61aa4f9060600160405180910390a25050505050505050565b6000546001600160a01b031633146113b65760405162461bcd60e51b815260206004820181905260248201527f4f776e61626c653a2063616c6c6572206973206e6f7420746865206f776e65726044820152606401610221565b6109c681611a37565b6000546001600160a01b031633146114195760405162461bcd60e51b815260206004820181905260248201527f4f776e61626c653a2063616c6c6572206973206e6f7420746865206f776e65726044820152606401610221565b600080546040516001600160a01b039091169083908381818185875af1925050503d8060008114611466576040519150601f19603f3d011682016040523d82523d6000602084013e61146b565b606091505b50509050806106d7576040517f0ca79afd00000000000000000000000000000000000000000000000000000000815260040160405180910390fd5b60006114b7868686868660006120a9565b9695505050505050565b6000806000600a60008581526020019081526020016000206040518060e001604052908160008201548152602001600182015481526020016002820154815260200160038201548152602001600482015481526020016005820160009054906101000a900460ff16600181111561153a5761153a61338f565b600181111561154b5761154b61338f565b815260200160068201548152505090508060c0015160001461169c576000806115726125a7565b6001600160a01b031663c39def0b7f73555344000000000000000000000000000000000000000000000000000000006115ae866000015161201c565b6001600160a01b031663cdf456e16040518163ffffffff1660e01b8152600401602060405180830381865afa1580156115eb573d6000803e3d6000fd5b505050506040513d601f19601f8201168201806040525081019061160f91906135fc565b6040516001600160e01b031960e085901b168152600481019290925260248201526044016040805180830381865afa15801561164f573d6000803e3d6000fd5b505050506040513d601f19601f82011682018060405250810190611673919061365b565b91509150808061168657508260c0015182115b1561169957506000958695509350505050565b50505b60008160a0015160018111156116b4576116b461338f565b036116cc576116c28161266c565b9250925050915091565b60018160a0015160018111156116e4576116e461338f565b036116f2576116c2816126cb565b50600093849350915050565b6000546001600160a01b031633146117585760405162461bcd60e51b815260206004820181905260248201527f4f776e61626c653a2063616c6c6572206973206e6f7420746865206f776e65726044820152606401610221565b6001600160a01b0381166117d45760405162461bcd60e51b815260206004820152602660248201527f4f776e61626c653a206e6577206f776e657220697320746865207a65726f206160448201527f64647265737300000000000000000000000000000000000000000000000000006064820152608401610221565b6109c681612459565b600054600160a01b900460ff16156118375760405162461bcd60e51b815260206004820181905260248201527f43616e6e6f7420696e697469616c697a6520696d706c656d656e746174696f6e6044820152606401610221565b600054600160a81b900460ff16156118915760405162461bcd60e51b815260206004820152601360248201527f416c726561647920696e697469616c697a6564000000000000000000000000006044820152606401610221565b6000805460ff60a81b1916600160a81b179055600580546001600160a01b0380871673ffffffffffffffffffffffffffffffffffffffff199283161790925560028054928616929091168217905560405163dacb2d0160e01b815263dacb2d019061197f907f467574757265734d61726b65744d616e61676572000000000000000000000000906004019081526040602082018190526030908201527f4d617267696e426173653a20436f756c64206e6f74206765742046757475726560608201527f73204d61726b6574204d616e6167657200000000000000000000000000000000608082015260a00190565b602060405180830381865afa15801561199c573d6000803e3d6000fd5b505050506040513d601f19601f820116820180604052508101906119c091906135df565b6003805473ffffffffffffffffffffffffffffffffffffffff199081166001600160a01b039384161790915560048054909116918416919091179055611a0533612459565b6001805473ffffffffffffffffffffffffffffffffffffffff19166001600160a01b0392909216919091179055505050565b806617d85b5bdd5b9d60ca1b81600003611a675760405163227a7b4d60e01b815260048101829052602401610221565b6005546001600160a01b03166323b872dd611a8a6000546001600160a01b031690565b6040516001600160e01b031960e084901b1681526001600160a01b039091166004820152306024820152604481018690526064016020604051808303816000875af1158015611add573d6000803e3d6000fd5b505050506040513d601f19601f82011682018060405250810190611b019190613597565b611b4d5760405162461bcd60e51b815260206004820152601a60248201527f4d617267696e426173653a206465706f736974206661696c65640000000000006044820152606401610221565b60405183815233907fe1fffcc4923d04b559f4d29a8bfc6cda04eb5b0d3c460751c2402c5c5cc9109c90602001610954565b815160ff811115611bbf576040517f0a9fd21a00000000000000000000000000000000000000000000000000000000815260048101829052602401610221565b6000805b828160ff161015611e8c576000858260ff1681518110611be557611be5613615565b60200260200101516000015190506000868360ff1681518110611c0a57611c0a613615565b60200260200101516040015190506000878460ff1681518110611c2f57611c2f613615565b60200260200101516020015190506000611c488461201c565b90506000611c55856106db565b60088a901c600090815260076020526040902054909550600160ff8b161b1615159350611c8192505050565b15611ddb5780600f0b600003611cce57611c9a8561271a565b83600003611cc95760405163227a7b4d60e01b81526873697a6544656c746160b81b6004820152602401610221565b611e0a565b611cdc84600f83900b613687565b600003611cc957611cec8561271a565b6040517fa8c92cf6000000000000000000000000000000000000000000000000000000008152654b57454e544160d01b60048201526001600160a01b0383169063a8c92cf690602401600060405180830381600087803b158015611d4f57600080fd5b505af1158015611d63573d6000803e3d6000fd5b50505050816001600160a01b0316635a1cbd2b6040518163ffffffff1660e01b8152600401600060405180830381600087803b158015611da257600080fd5b505af1158015611db6573d6000803e3d6000fd5b50505050611dc584838b61281f565b611dcf90886136c6565b96505050505050611e7a565b83600003611e0a5760405163227a7b4d60e01b81526873697a6544656c746160b81b6004820152602401610221565b6000831215611e3957611e1f8385848c6128f4565b611e2990886136c6565b9650611e3485612a42565b611e74565b6000831315611e4e57611e1f8385848c612ab4565b8315611e7457611e5f84838b612c4b565b611e6990886136c6565b9650611e7485612a42565b50505050505b80611e84816136de565b915050611bc3565b50801561201657611e9b610c9b565b811115611ebb57604051630b2f05f960e11b815260040160405180910390fd5b60055460048054604080517f61d027b300000000000000000000000000000000000000000000000000000000815290516000946001600160a01b039081169463a9059cbb94909116926361d027b392818301926020928290030181865afa158015611f2a573d6000803e3d6000fd5b505050506040513d601f19601f82011682018060405250810190611f4e91906135df565b6040516001600160e01b031960e084901b1681526001600160a01b039091166004820152602481018590526044016020604051808303816000875af1158015611f9b573d6000803e3d6000fd5b505050506040513d601f19601f82011682018060405250810190611fbf9190613597565b905080611fdf57604051630b2f05f960e11b815260040160405180910390fd5b60405182815230907f3b0d6de922de3f4d0570347a069fd8c8eadd06c43824276593cce7088079939d9060200160405180910390a2505b50505050565b6003546040517fe63bfadb000000000000000000000000000000000000000000000000000000008152600481018390526000916001600160a01b03169063e63bfadb90602401602060405180830381865afa15801561207f573d6000803e3d6000fd5b505050506040513d601f19601f820116820180604052508101906120a391906135df565b92915050565b60006120b485612441565b7f5f73697a6544656c746100000000000000000000000000000000000000000000816000036120f95760405163227a7b4d60e01b815260048101829052602401610221565b6000546001600160a01b031633146121535760405162461bcd60e51b815260206004820181905260248201527f4f776e61626c653a2063616c6c6572206973206e6f7420746865206f776e65726044820152606401610221565b662386f26fc100004710156121a3576040517f5c4a8f55000000000000000000000000000000000000000000000000000000008152476004820152662386f26fc100006024820152604401610221565b6000881315612216576121b4610c9b565b6121bd89612441565b11156121f6576121cb610c9b565b6121d489612441565b604051631e58139d60e11b815260048101929092526024820152604401610221565b6121ff88612441565b6006600082825461221091906136c6565b90915550505b600154600b54604080516024808201939093528151808203909301835260440181526020820180516001600160e01b03167f94e05b2c00000000000000000000000000000000000000000000000000000000179052517fb9f45adb0000000000000000000000000000000000000000000000000000000081526000926001600160a01b03169163b9f45adb916122d191309163253d844d60e21b91839173eeeeeeeeeeeeeeeeeeeeeeeeeeeeeeeeeeeeeeee906004016136fd565b6020604051808303816000875af11580156122f0573d6000803e3d6000fd5b505050506040513d601f19601f8201168201806040525081019061231491906135fc565b90506040518060e001604052808b81526020018a81526020018981526020018881526020018281526020018760018111156123515761235161338f565b81526020908101879052600b546000908152600a82526040908190208351815591830151600180840191909155908301516002830155606083015160038301556080830151600483015560a08301516005830180549192909160ff19169083818111156123c0576123c061338f565b021790555060c08201518160060155905050306001600160a01b03167f8f08ab4b600854bacfbaba51c4409d4f9ba7a0b78c3ad7e93d43755e371f98e3600b548c8c8c8c8c6040516124179695949392919061374d565b60405180910390a2600b805490600061242f8361377d565b909155509a9950505050505050505050565b600080821261245057816120a3565b6120a382613796565b600080546001600160a01b0383811673ffffffffffffffffffffffffffffffffffffffff19831681178455604051919092169283917f8be0079c531659141344cd1fd0a4f28419497f9722a3daafe3b4186f6b6457e09190a35050565b7fffffffffffffffffffffffff11111111111111111111111111111111111111126001600160a01b038216016125955760006124f0610c0f565b6001600160a01b03168360405160006040518083038185875af1925050503d806000811461253a576040519150601f19603f3d011682016040523d82523d6000602084013e61253f565b606091505b50509050806125905760405162461bcd60e51b815260206004820152601e60248201527f5f7472616e736665723a20455448207472616e73666572206661696c656400006044820152606401610221565b505050565b6106d7816125a1610c0f565b84612d36565b6002546040805163dacb2d0160e01b81527f45786368616e676572000000000000000000000000000000000000000000000060048201526024810191909152602360448201527f4d617267696e426173653a20436f756c64206e6f74206765742045786368616e60648201527f676572000000000000000000000000000000000000000000000000000000000060848201526000916001600160a01b03169063dacb2d019060a401602060405180830381865afa158015610c72573d6000803e3d6000fd5b6000806000612686612681856000015161201c565b612da1565b90506000846040015113156126a45760609093015183111593915050565b6000846040015112156126c05760609093015183101593915050565b600094909350915050565b60008060006126e0612681856000015161201c565b90506000846040015113156126fe5760609093015183101593915050565b6000846040015112156126c05760609093015183111593915050565b600081815260096020526040902054600854811061273a5761273a6137b2565b6000828152600960205260408120555b600854612759906001906135c8565b8110156127de576008816001018154811061277657612776613615565b90600052602060002001546008828154811061279457612794613615565b90600052602060002001819055508060096000600884815481106127ba576127ba613615565b6000918252602080832090910154835282019290925260400190205560010161274a565b60088054806127ef576127ef6137c8565b600190038181906000526020600020016000905590556106d78260001c60006007612e499092919063ffffffff16565b600061271082600460009054906101000a90046001600160a01b03166001600160a01b03166324bcdfbd6040518163ffffffff1660e01b8152600401602060405180830381865afa158015612878573d6000803e3d6000fd5b505050506040513d601f19601f8201168201806040525081019061289c91906135fc565b6128a691906136c6565b6128af86612441565b6128b991906137de565b6128c391906137fd565b9050670de0b6b3a7640000816128d885612da1565b6128e291906137de565b6128ec91906137fd565b949350505050565b600083156129e05760405163028a28af60e61b815260048101859052654b57454e544160d01b60248201526001600160a01b0384169063a28a2bc090604401600060405180830381600087803b15801561294d57600080fd5b505af1158015612961573d6000803e3d6000fd5b5050505061297084848461281f565b90506001600160a01b0383166388a3c84861298b838861381f565b6040518263ffffffff1660e01b81526004016129a991815260200190565b600060405180830381600087803b1580156129c357600080fd5b505af11580156129d7573d6000803e3d6000fd5b505050506128ec565b604051631114790960e31b8152600481018690526001600160a01b038416906388a3c84890602401600060405180830381600087803b158015612a2257600080fd5b505af1158015612a36573d6000803e3d6000fd5b50505050949350505050565b600881901c600090815260076020526040902054600160ff83161b166109c657600880546000838152600960205260408120829055600180830184559290527ff3f7a9fe364faab93b216da50a3214154f22a0a2b415b23a84c8169e8b636ee3018290556109c6906007908390612e49565b600080612ac086612441565b9050612aca610c9b565b811115612afd57612ad9610c9b565b604051631e58139d60e11b8152600481019190915260248101829052604401610221565b8415612be757612b0e85858561281f565b91506001600160a01b0384166388a3c848612b29848961381f565b6040518263ffffffff1660e01b8152600401612b4791815260200190565b600060405180830381600087803b158015612b6157600080fd5b505af1158015612b75573d6000803e3d6000fd5b505060405163028a28af60e61b815260048101889052654b57454e544160d01b60248201526001600160a01b038716925063a28a2bc09150604401600060405180830381600087803b158015612bca57600080fd5b505af1158015612bde573d6000803e3d6000fd5b50505050612c42565b604051631114790960e31b8152600481018790526001600160a01b038516906388a3c84890602401600060405180830381600087803b158015612c2957600080fd5b505af1158015612c3d573d6000803e3d6000fd5b505050505b50949350505050565b60405163028a28af60e61b815260048101849052654b57454e544160d01b60248201526000906001600160a01b0384169063a28a2bc090604401600060405180830381600087803b158015612c9f57600080fd5b505af1158015612cb3573d6000803e3d6000fd5b50505050612cc284848461281f565b90506001600160a01b0383166388a3c848612cdf8360001961385e565b6040518263ffffffff1660e01b8152600401612cfd91815260200190565b600060405180830381600087803b158015612d1757600080fd5b505af1158015612d2b573d6000803e3d6000fd5b505050509392505050565b604080516001600160a01b038416602482015260448082018490528251808303909101815260649091019091526020810180516001600160e01b03167fa9059cbb00000000000000000000000000000000000000000000000000000000179052612590908490612e98565b6000806000836001600160a01b031663d24378eb6040518163ffffffff1660e01b81526004016040805180830381865afa158015612de3573d6000803e3d6000fd5b505050506040513d601f19601f82011682018060405250810190612e07919061365b565b915091508015612e42576040517ebfc92100000000000000000000000000000000000000000000000000000000815260040160405180910390fd5b5092915050565b8015612e7357600882901c60009081526020849052604090208054600160ff85161b179055505050565b600882901c60009081526020849052604090208054600160ff85161b19169055505050565b6000612eed826040518060400160405280602081526020017f5361666545524332303a206c6f772d6c6576656c2063616c6c206661696c6564815250856001600160a01b0316612f7d9092919063ffffffff16565b8051909150156125905780806020019051810190612f0b9190613597565b6125905760405162461bcd60e51b815260206004820152602a60248201527f5361666545524332303a204552433230206f7065726174696f6e20646964206e60448201527f6f742073756363656564000000000000000000000000000000000000000000006064820152608401610221565b60606128ec8484600085612f93565b9392505050565b60608247101561300b5760405162461bcd60e51b815260206004820152602660248201527f416464726573733a20696e73756666696369656e742062616c616e636520666f60448201527f722063616c6c00000000000000000000000000000000000000000000000000006064820152608401610221565b6001600160a01b0385163b6130625760405162461bcd60e51b815260206004820152601d60248201527f416464726573733a2063616c6c20746f206e6f6e2d636f6e74726163740000006044820152606401610221565b600080866001600160a01b0316858760405161307e91906138e5565b60006040518083038185875af1925050503d80600081146130bb576040519150601f19603f3d011682016040523d82523d6000602084013e6130c0565b606091505b50915091506109fa828286606083156130da575081612f8c565b8251156130ea5782518084602001fd5b8160405162461bcd60e51b81526004016102219190613901565b634e487b7160e01b600052604160045260246000fd5b6040516060810167ffffffffffffffff8111828210171561313d5761313d613104565b60405290565b604051601f8201601f1916810167ffffffffffffffff8111828210171561316c5761316c613104565b604052919050565b600082601f83011261318557600080fd5b8135602067ffffffffffffffff8211156131a1576131a1613104565b6131af818360051b01613143565b828152606092830285018201928282019190878511156131ce57600080fd5b8387015b858110156132155781818a0312156131ea5760008081fd5b6131f261311a565b8135815285820135868201526040808301359082015284529284019281016131d2565b5090979650505050505050565b6000806040838503121561323557600080fd5b82359150602083013567ffffffffffffffff81111561325357600080fd5b61325f85828601613174565b9150509250929050565b60006020828403121561327b57600080fd5b5035919050565b60006020828403121561329457600080fd5b813567ffffffffffffffff8111156132ab57600080fd5b6128ec84828501613174565b8035600281106132c657600080fd5b919050565b60008060008060008060c087890312156132e457600080fd5b86359550602087013594506040870135935060608701359250613309608088016132b7565b915060a087013590509295509295509295565b60005b8381101561333757818101518382015260200161331f565b838111156120165750506000910152565b6000815180845261336081602086016020860161331c565b601f01601f19169290920160200192915050565b82151581526040602082015260006128ec6040830184613348565b634e487b7160e01b600052602160045260246000fd5b600281106133c357634e487b7160e01b600052602160045260246000fd5b9052565b600060e0820190508882528760208301528660408301528560608301528460808301526133f760a08301856133a5565b8260c083015298975050505050505050565b600080600080600060a0868803121561342157600080fd5b85359450602086013593506040860135925060608601359150613446608087016132b7565b90509295509295909350565b6001600160a01b03811681146109c657600080fd5b60006020828403121561347957600080fd5b8135612f8c81613452565b6000806000806080858703121561349a57600080fd5b84356134a581613452565b935060208501356134b581613452565b925060408501356134c581613452565b915060608501356134d581613452565b939692955090935050565b805167ffffffffffffffff811681146132c657600080fd5b80516fffffffffffffffffffffffffffffffff811681146132c657600080fd5b600080600080600060a0868803121561353057600080fd5b613539866134e0565b9450613547602087016134e0565b9350613555604087016134f8565b9250613563606087016134f8565b9150608086015180600f0b811461357957600080fd5b809150509295509295909350565b805180151581146132c657600080fd5b6000602082840312156135a957600080fd5b612f8c82613587565b634e487b7160e01b600052601160045260246000fd5b6000828210156135da576135da6135b2565b500390565b6000602082840312156135f157600080fd5b8151612f8c81613452565b60006020828403121561360e57600080fd5b5051919050565b634e487b7160e01b600052603260045260246000fd5b6000806040838503121561363e57600080fd5b82519150602083015161365081613452565b809150509250929050565b6000806040838503121561366e57600080fd5b8251915061367e60208401613587565b90509250929050565b6000808212826001600160ff1b03038413811516156136a8576136a86135b2565b82600160ff1b0384128116156136c0576136c06135b2565b50500190565b600082198211156136d9576136d96135b2565b500190565b600060ff821660ff81036136f4576136f46135b2565b60010192915050565b60006001600160a01b0380881683526001600160e01b031987166020840152808616604084015260a0606084015261373860a0840186613348565b91508084166080840152509695505050505050565b600060c0820190508782528660208301528560408301528460608301528360808301526109fa60a08301846133a5565b60006001820161378f5761378f6135b2565b5060010190565b6000600160ff1b82036137ab576137ab6135b2565b5060000390565b634e487b7160e01b600052600160045260246000fd5b634e487b7160e01b600052603160045260246000fd5b60008160001904831182151516156137f8576137f86135b2565b500290565b60008261381a57634e487b7160e01b600052601260045260246000fd5b500490565b600080831283600160ff1b0183128115161561383d5761383d6135b2565b836001600160ff1b03018313811615613858576138586135b2565b50500390565b60006001600160ff1b03600084136000841385830485118282161615613886576138866135b2565b600160ff1b60008712868205881281841616156138a5576138a56135b2565b600087129250878205871284841616156138c1576138c16135b2565b878505871281841616156138d7576138d76135b2565b505050929093029392505050565b600082516138f781846020870161331c565b9190910192915050565b602081526000612f8c602083018461334856fea26469706673582212201047c7b544cd1592f869eb5988e900a1832fd405c7e9b7af02b0319e690895eb64736f6c634300080d0033",
  "devdoc": {
    "author": "JaredBorders (jaredborders@proton.me), JChiaramonte7 (jeremy@bytecode.llc)",
    "kind": "dev",
    "methods": {
      "constructor": {
        "params": {
          "_addressResolver": ": contract address for synthetix address resolver",
          "_marginAsset": ": token contract address used for account margin",
          "_marginBaseSettings": ": contract address for MarginBase account settings",
          "_ops": ": contract address for gelato ops -- must be payable",
          "_version": ": version of contract"
        }
      },
      "newAccount()": {
        "details": "this contract is the initial owner of cloned MarginBase, but ownership is transferred after successful initialization"
      }
    },
    "title": "Kwenta MarginBase Factory",
    "version": 1
  },
  "userdoc": {
    "kind": "user",
    "methods": {
      "addressResolver()": {
        "notice": "synthetix address resolver"
      },
      "constructor": {
        "notice": "deploy MarginBase implementation to later be cloned"
      },
      "implementation()": {
        "notice": "MarginBase contract acting as user's account"
      },
      "marginAsset()": {
        "notice": "ERC20 token used to interact with markets"
      },
      "marginBaseSettings()": {
        "notice": "settings for MarginBase accounts"
      },
      "newAccount()": {
        "notice": "clone MarginBase (i.e. create new account for user)"
      },
      "ops()": {
        "notice": "gelato ops"
      }
    },
    "notice": "Factory which enables deploying a MarginBase account for any user",
    "version": 1
  },
  "storageLayout": {
    "storage": [
      {
        "astId": 871,
        "contract": "contracts/MarginAccountFactory.sol:MarginAccountFactory",
        "label": "version",
        "offset": 0,
        "slot": "0",
        "type": "t_string_storage"
      }
    ],
    "types": {
      "t_string_storage": {
        "encoding": "bytes",
        "label": "string",
        "numberOfBytes": "32"
      }
    }
  }
}