{
  "address": "0xA8EE338DbeB651A6483578683Fca90b8FfbdE417",
  "abi": [
    {
      "inputs": [
        {
          "internalType": "address",
          "name": "_treasury",
          "type": "address"
        },
        {
          "internalType": "uint256",
          "name": "_distributionFee",
          "type": "uint256"
        },
        {
          "internalType": "uint256",
          "name": "_limitOrderFee",
          "type": "uint256"
        },
        {
          "internalType": "uint256",
          "name": "_stopLossFee",
          "type": "uint256"
        }
      ],
      "stateMutability": "nonpayable",
      "type": "constructor"
    },
    {
      "inputs": [
        {
          "internalType": "uint256",
          "name": "fee",
          "type": "uint256"
        }
      ],
      "name": "InvalidDistributionFee",
      "type": "error"
    },
    {
      "inputs": [
        {
          "internalType": "uint256",
          "name": "fee",
          "type": "uint256"
        }
      ],
      "name": "InvalidLimitOrderFee",
      "type": "error"
    },
    {
      "inputs": [
        {
          "internalType": "uint256",
          "name": "fee",
          "type": "uint256"
        }
      ],
      "name": "InvalidStopLossFee",
      "type": "error"
    },
    {
      "inputs": [],
      "name": "ZeroAddress",
      "type": "error"
    },
    {
      "anonymous": false,
      "inputs": [
        {
          "indexed": false,
          "internalType": "uint256",
          "name": "fee",
          "type": "uint256"
        }
      ],
      "name": "DistributionFeeChanged",
      "type": "event"
    },
    {
      "anonymous": false,
      "inputs": [
        {
          "indexed": false,
          "internalType": "uint256",
          "name": "fee",
          "type": "uint256"
        }
      ],
      "name": "LimitOrderFeeChanged",
      "type": "event"
    },
    {
      "anonymous": false,
      "inputs": [
        {
          "indexed": true,
          "internalType": "address",
          "name": "previousOwner",
          "type": "address"
        },
        {
          "indexed": true,
          "internalType": "address",
          "name": "newOwner",
          "type": "address"
        }
      ],
      "name": "OwnershipTransferred",
      "type": "event"
    },
    {
      "anonymous": false,
      "inputs": [
        {
          "indexed": false,
          "internalType": "uint256",
          "name": "fee",
          "type": "uint256"
        }
      ],
      "name": "StopLossFeeChanged",
      "type": "event"
    },
    {
      "anonymous": false,
      "inputs": [
        {
          "indexed": false,
          "internalType": "address",
          "name": "treasury",
          "type": "address"
        }
      ],
      "name": "TreasuryAddressChanged",
      "type": "event"
    },
    {
      "inputs": [],
      "name": "distributionFee",
      "outputs": [
        {
          "internalType": "uint256",
          "name": "",
          "type": "uint256"
        }
      ],
      "stateMutability": "view",
      "type": "function"
    },
    {
      "inputs": [],
      "name": "limitOrderFee",
      "outputs": [
        {
          "internalType": "uint256",
          "name": "",
          "type": "uint256"
        }
      ],
      "stateMutability": "view",
      "type": "function"
    },
    {
      "inputs": [],
      "name": "owner",
      "outputs": [
        {
          "internalType": "address",
          "name": "",
          "type": "address"
        }
      ],
      "stateMutability": "view",
      "type": "function"
    },
    {
      "inputs": [],
      "name": "renounceOwnership",
      "outputs": [],
      "stateMutability": "nonpayable",
      "type": "function"
    },
    {
      "inputs": [
        {
          "internalType": "uint256",
          "name": "_fee",
          "type": "uint256"
        }
      ],
      "name": "setDistributionFee",
      "outputs": [],
      "stateMutability": "nonpayable",
      "type": "function"
    },
    {
      "inputs": [
        {
          "internalType": "uint256",
          "name": "_fee",
          "type": "uint256"
        }
      ],
      "name": "setLimitOrderFee",
      "outputs": [],
      "stateMutability": "nonpayable",
      "type": "function"
    },
    {
      "inputs": [
        {
          "internalType": "uint256",
          "name": "_fee",
          "type": "uint256"
        }
      ],
      "name": "setStopLossFee",
      "outputs": [],
      "stateMutability": "nonpayable",
      "type": "function"
    },
    {
      "inputs": [
        {
          "internalType": "address",
          "name": "_treasury",
          "type": "address"
        }
      ],
      "name": "setTreasury",
      "outputs": [],
      "stateMutability": "nonpayable",
      "type": "function"
    },
    {
      "inputs": [],
      "name": "stopLossFee",
      "outputs": [
        {
          "internalType": "uint256",
          "name": "",
          "type": "uint256"
        }
      ],
      "stateMutability": "view",
      "type": "function"
    },
    {
      "inputs": [
        {
          "internalType": "address",
          "name": "newOwner",
          "type": "address"
        }
      ],
      "name": "transferOwnership",
      "outputs": [],
      "stateMutability": "nonpayable",
      "type": "function"
    },
    {
      "inputs": [],
      "name": "treasury",
      "outputs": [
        {
          "internalType": "address",
          "name": "",
          "type": "address"
        }
      ],
      "stateMutability": "view",
      "type": "function"
    }
  ],
  "transactionHash": "0x947ece0f3641d34442a7b86345cd885b108e2e2aba992340e20157f400e08ae1",
  "args": [
    "0xB594a842A528cb8b80536a84D3DfEd73C2c0c658",
    5,
    5,
    5
  ],
  "numDeployments": 1,
  "solcInputHash": "b8586a1d92d66e61ca5cf7095e3e1241",
  "bytecode": "0x60806040523480156200001157600080fd5b5060405162000f9838038062000f9883398181016040528101906200003791906200036a565b620000576200004b620001f960201b60201c565b6200020160201b60201c565b600073ffffffffffffffffffffffffffffffffffffffff168473ffffffffffffffffffffffffffffffffffffffff1603620000be576040517fd92e233d00000000000000000000000000000000000000000000000000000000815260040160405180910390fd5b83600160006101000a81548173ffffffffffffffffffffffffffffffffffffffff021916908373ffffffffffffffffffffffffffffffffffffffff16021790555061271083106200014857826040517f7c6b65690000000000000000000000000000000000000000000000000000000081526004016200013f9190620003ed565b60405180910390fd5b61271082106200019157816040517febd5cb73000000000000000000000000000000000000000000000000000000008152600401620001889190620003ed565b60405180910390fd5b6127108110620001da57806040517f88c8357c000000000000000000000000000000000000000000000000000000008152600401620001d19190620003ed565b60405180910390fd5b826002819055508160038190555080600481905550505050506200040a565b600033905090565b60008060009054906101000a900473ffffffffffffffffffffffffffffffffffffffff169050816000806101000a81548173ffffffffffffffffffffffffffffffffffffffff021916908373ffffffffffffffffffffffffffffffffffffffff1602179055508173ffffffffffffffffffffffffffffffffffffffff168173ffffffffffffffffffffffffffffffffffffffff167f8be0079c531659141344cd1fd0a4f28419497f9722a3daafe3b4186f6b6457e060405160405180910390a35050565b600080fd5b600073ffffffffffffffffffffffffffffffffffffffff82169050919050565b6000620002f782620002ca565b9050919050565b6200030981620002ea565b81146200031557600080fd5b50565b6000815190506200032981620002fe565b92915050565b6000819050919050565b62000344816200032f565b81146200035057600080fd5b50565b600081519050620003648162000339565b92915050565b60008060008060808587031215620003875762000386620002c5565b5b6000620003978782880162000318565b9450506020620003aa8782880162000353565b9350506040620003bd8782880162000353565b9250506060620003d08782880162000353565b91505092959194509250565b620003e7816200032f565b82525050565b6000602082019050620004046000830184620003dc565b92915050565b610b7e806200041a6000396000f3fe608060405234801561001057600080fd5b50600436106100a95760003560e01c8063715018a611610071578063715018a61461013e5780638da5cb5b146101485780639ee8e19814610166578063c08a74f214610184578063f0f44260146101a2578063f2fde38b146101be576100a9565b806327ca1009146100ae5780634049e562146100cc578063458edd74146100e85780636156c7331461010457806361d027b314610120575b600080fd5b6100b66101da565b6040516100c3919061090b565b60405180910390f35b6100e660048036038101906100e19190610957565b6101e0565b005b61010260048036038101906100fd9190610957565b6102e5565b005b61011e60048036038101906101199190610957565b6103ea565b005b6101286104ef565b60405161013591906109c5565b60405180910390f35b610146610515565b005b61015061059d565b60405161015d91906109c5565b60405180910390f35b61016e6105c6565b60405161017b919061090b565b60405180910390f35b61018c6105cc565b604051610199919061090b565b60405180910390f35b6101bc60048036038101906101b79190610a0c565b6105d2565b005b6101d860048036038101906101d39190610a0c565b61072f565b005b60035481565b6101e8610826565b73ffffffffffffffffffffffffffffffffffffffff1661020661059d565b73ffffffffffffffffffffffffffffffffffffffff161461025c576040517f08c379a000000000000000000000000000000000000000000000000000000000815260040161025390610a96565b60405180910390fd5b61271081106102a257806040517f88c8357c000000000000000000000000000000000000000000000000000000008152600401610299919061090b565b60405180910390fd5b806004819055507f93ee2bbb1792bfbdf68fbf44da5ae3114214cc28c20bcbd422939ca46aaf84126004546040516102da919061090b565b60405180910390a150565b6102ed610826565b73ffffffffffffffffffffffffffffffffffffffff1661030b61059d565b73ffffffffffffffffffffffffffffffffffffffff1614610361576040517f08c379a000000000000000000000000000000000000000000000000000000000815260040161035890610a96565b60405180910390fd5b61271081106103a757806040517febd5cb7300000000000000000000000000000000000000000000000000000000815260040161039e919061090b565b60405180910390fd5b806003819055507f64ad89be1344628009ffc29a2d5a09191c3ee4f4241b1ce6d52e4e877d9aede06003546040516103df919061090b565b60405180910390a150565b6103f2610826565b73ffffffffffffffffffffffffffffffffffffffff1661041061059d565b73ffffffffffffffffffffffffffffffffffffffff1614610466576040517f08c379a000000000000000000000000000000000000000000000000000000000815260040161045d90610a96565b60405180910390fd5b61271081106104ac57806040517f7c6b65690000000000000000000000000000000000000000000000000000000081526004016104a3919061090b565b60405180910390fd5b806002819055507f7c275d17890891b6c49051fb7de66142f67fd28eb93b2520988e97d65d3f64296002546040516104e4919061090b565b60405180910390a150565b600160009054906101000a900473ffffffffffffffffffffffffffffffffffffffff1681565b61051d610826565b73ffffffffffffffffffffffffffffffffffffffff1661053b61059d565b73ffffffffffffffffffffffffffffffffffffffff1614610591576040517f08c379a000000000000000000000000000000000000000000000000000000000815260040161058890610a96565b60405180910390fd5b61059b600061082e565b565b60008060009054906101000a900473ffffffffffffffffffffffffffffffffffffffff16905090565b60025481565b60045481565b6105da610826565b73ffffffffffffffffffffffffffffffffffffffff166105f861059d565b73ffffffffffffffffffffffffffffffffffffffff161461064e576040517f08c379a000000000000000000000000000000000000000000000000000000000815260040161064590610a96565b60405180910390fd5b600073ffffffffffffffffffffffffffffffffffffffff168173ffffffffffffffffffffffffffffffffffffffff16036106b4576040517fd92e233d00000000000000000000000000000000000000000000000000000000815260040160405180910390fd5b80600160006101000a81548173ffffffffffffffffffffffffffffffffffffffff021916908373ffffffffffffffffffffffffffffffffffffffff1602179055507f9073dfac663173e64aa95665faedae52e2246f9bcdd3890fbfaf6733b46bba138160405161072491906109c5565b60405180910390a150565b610737610826565b73ffffffffffffffffffffffffffffffffffffffff1661075561059d565b73ffffffffffffffffffffffffffffffffffffffff16146107ab576040517f08c379a00000000000000000000000000000000000000000000000000000000081526004016107a290610a96565b60405180910390fd5b600073ffffffffffffffffffffffffffffffffffffffff168173ffffffffffffffffffffffffffffffffffffffff160361081a576040517f08c379a000000000000000000000000000000000000000000000000000000000815260040161081190610b28565b60405180910390fd5b6108238161082e565b50565b600033905090565b60008060009054906101000a900473ffffffffffffffffffffffffffffffffffffffff169050816000806101000a81548173ffffffffffffffffffffffffffffffffffffffff021916908373ffffffffffffffffffffffffffffffffffffffff1602179055508173ffffffffffffffffffffffffffffffffffffffff168173ffffffffffffffffffffffffffffffffffffffff167f8be0079c531659141344cd1fd0a4f28419497f9722a3daafe3b4186f6b6457e060405160405180910390a35050565b6000819050919050565b610905816108f2565b82525050565b600060208201905061092060008301846108fc565b92915050565b600080fd5b610934816108f2565b811461093f57600080fd5b50565b6000813590506109518161092b565b92915050565b60006020828403121561096d5761096c610926565b5b600061097b84828501610942565b91505092915050565b600073ffffffffffffffffffffffffffffffffffffffff82169050919050565b60006109af82610984565b9050919050565b6109bf816109a4565b82525050565b60006020820190506109da60008301846109b6565b92915050565b6109e9816109a4565b81146109f457600080fd5b50565b600081359050610a06816109e0565b92915050565b600060208284031215610a2257610a21610926565b5b6000610a30848285016109f7565b91505092915050565b600082825260208201905092915050565b7f4f776e61626c653a2063616c6c6572206973206e6f7420746865206f776e6572600082015250565b6000610a80602083610a39565b9150610a8b82610a4a565b602082019050919050565b60006020820190508181036000830152610aaf81610a73565b9050919050565b7f4f776e61626c653a206e6577206f776e657220697320746865207a65726f206160008201527f6464726573730000000000000000000000000000000000000000000000000000602082015250565b6000610b12602683610a39565b9150610b1d82610ab6565b604082019050919050565b60006020820190508181036000830152610b4181610b05565b905091905056fea26469706673582212204e4c57fff783d8df81dfd6d45bf67d416b2ae1850548251c01e66c20e38de01064736f6c634300080d0033",
  "devdoc": {
    "author": "JaredBorders (jaredborders@proton.me), JChiaramonte7 (jeremy@bytecode.llc)",
    "details": "This contract will require deployment prior to MarginBase account creation",
    "errors": {
      "InvalidDistributionFee(uint256)": [
        {
          "params": {
            "fee": ": fee denoted in BPS"
          }
        }
      ],
      "InvalidLimitOrderFee(uint256)": [
        {
          "params": {
            "fee": ": fee denoted in BPS"
          }
        }
      ],
      "InvalidStopLossFee(uint256)": [
        {
          "params": {
            "fee": ": fee denoted in BPS"
          }
        }
      ]
    },
    "events": {
      "DistributionFeeChanged(uint256)": {
        "params": {
          "fee": ": fee denoted in BPS"
        }
      },
      "LimitOrderFeeChanged(uint256)": {
        "params": {
          "fee": ": fee denoted in BPS"
        }
      },
      "StopLossFeeChanged(uint256)": {
        "params": {
          "fee": ": fee denoted in BPS"
        }
      },
      "TreasuryAddressChanged(address)": {
        "params": {
          "treasury": ": new treasury address"
        }
      }
    },
    "kind": "dev",
    "methods": {
      "constructor": {
        "params": {
          "_distributionFee": ": fee denoted in BPS",
          "_limitOrderFee": ": fee denoted in BPS",
          "_stopLossFee": ": fee denoted in BPS",
          "_treasury": ": Kwenta's Treasury Address"
        }
      },
      "owner()": {
        "details": "Returns the address of the current owner."
      },
      "renounceOwnership()": {
        "details": "Leaves the contract without owner. It will not be possible to call `onlyOwner` functions anymore. Can only be called by the current owner. NOTE: Renouncing ownership will leave the contract without an owner, thereby removing any functionality that is only available to the owner."
      },
      "setDistributionFee(uint256)": {
        "params": {
          "_fee": ": fee denoted in BPS"
        }
      },
      "setLimitOrderFee(uint256)": {
        "params": {
          "_fee": ": fee denoted in BPS"
        }
      },
      "setStopLossFee(uint256)": {
        "params": {
          "_fee": ": fee denoted in BPS"
        }
      },
      "setTreasury(address)": {
        "params": {
          "_treasury": ": new treasury address"
        }
      },
      "transferOwnership(address)": {
        "details": "Transfers ownership of the contract to a new account (`newOwner`). Can only be called by the current owner."
      }
    },
    "stateVariables": {
      "distributionFee": {
        "details": "fee imposed on calls to distributeMargin()"
      },
      "limitOrderFee": {
        "details": "fee imposed on limit orders"
      },
      "stopLossFee": {
        "details": "fee imposed on stop losses"
      }
    },
    "title": "Kwenta Settings for MarginBase Accounts",
    "version": 1
  },
  "userdoc": {
    "errors": {
      "InvalidDistributionFee(uint256)": [
        {
          "notice": "invalid distribution fee"
        }
      ],
      "InvalidLimitOrderFee(uint256)": [
        {
          "notice": "invalid limit order fee"
        }
      ],
      "InvalidStopLossFee(uint256)": [
        {
          "notice": "invalid stop loss fee"
        }
      ],
      "ZeroAddress()": [
        {
          "notice": "zero address cannot be used"
        }
      ]
    },
    "events": {
      "DistributionFeeChanged(uint256)": {
        "notice": "emitted after a successful distribution fee change"
      },
      "LimitOrderFeeChanged(uint256)": {
        "notice": "emitted after a successful limit order fee change"
      },
      "StopLossFeeChanged(uint256)": {
        "notice": "emitted after a successful stop loss fee change"
      },
      "TreasuryAddressChanged(address)": {
        "notice": "emitted after changing treasury address"
      }
    },
    "kind": "user",
    "methods": {
      "constructor": {
        "notice": "set initial fee imposed on calls to MarginBase.distributeMargin()"
      },
      "distributionFee()": {
        "notice": "denoted in Basis points (BPS) (One basis point is equal to 1/100th of 1%)"
      },
      "limitOrderFee()": {
        "notice": "denoted in Basis points (BPS) (One basis point is equal to 1/100th of 1%)"
      },
      "setDistributionFee(uint256)": {
        "notice": "set new distribution fee"
      },
      "setLimitOrderFee(uint256)": {
        "notice": "set new limit order fee"
      },
      "setStopLossFee(uint256)": {
        "notice": "set new stop loss fee"
      },
      "setTreasury(address)": {
        "notice": "set new treasury address"
      },
      "stopLossFee()": {
        "notice": "denoted in Basis points (BPS) (One basis point is equal to 1/100th of 1%)"
      }
    },
    "notice": "Contract (owned by the deployer) for controlling the settings of MarginBase account(s)",
    "version": 1
  },
  "storageLayout": {
    "storage": [
      {
        "astId": 7,
        "contract": "contracts/MarginBaseSettings.sol:MarginBaseSettings",
        "label": "_owner",
        "offset": 0,
        "slot": "0",
        "type": "t_address"
      },
      {
        "astId": 2032,
        "contract": "contracts/MarginBaseSettings.sol:MarginBaseSettings",
        "label": "treasury",
        "offset": 0,
        "slot": "1",
        "type": "t_address"
      },
      {
        "astId": 2035,
        "contract": "contracts/MarginBaseSettings.sol:MarginBaseSettings",
        "label": "distributionFee",
        "offset": 0,
        "slot": "2",
        "type": "t_uint256"
      },
      {
        "astId": 2038,
        "contract": "contracts/MarginBaseSettings.sol:MarginBaseSettings",
        "label": "limitOrderFee",
        "offset": 0,
        "slot": "3",
        "type": "t_uint256"
      },
      {
        "astId": 2041,
        "contract": "contracts/MarginBaseSettings.sol:MarginBaseSettings",
        "label": "stopLossFee",
        "offset": 0,
        "slot": "4",
        "type": "t_uint256"
      }
    ],
    "types": {
      "t_address": {
        "encoding": "inplace",
        "label": "address",
        "numberOfBytes": "20"
      },
      "t_uint256": {
        "encoding": "inplace",
        "label": "uint256",
        "numberOfBytes": "32"
      }
    }
  }
}